{
	"AccessControl.sol": {
		"AccessControl": {
			"abi": [
				{
					"anonymous": false,
					"inputs": [
						{
							"indexed": false,
							"internalType": "bytes32",
							"name": "fileHash",
							"type": "bytes32"
						},
						{
							"indexed": false,
							"internalType": "address",
							"name": "user",
							"type": "address"
						},
						{
							"indexed": false,
							"internalType": "uint256",
							"name": "expiresAt",
							"type": "uint256"
						}
					],
					"name": "AccessGranted",
					"type": "event"
				},
				{
					"inputs": [
						{
							"internalType": "bytes32",
							"name": "fileHash",
							"type": "bytes32"
						},
						{
							"internalType": "address",
							"name": "user",
							"type": "address"
						},
						{
							"internalType": "uint256",
							"name": "duration",
							"type": "uint256"
						}
					],
					"name": "grantAccess",
					"outputs": [],
					"stateMutability": "nonpayable",
					"type": "function"
				},
				{
					"inputs": [
						{
							"internalType": "bytes32",
							"name": "fileHash",
							"type": "bytes32"
						},
						{
							"internalType": "address",
							"name": "user",
							"type": "address"
						}
					],
					"name": "hasAccess",
					"outputs": [
						{
							"internalType": "bool",
							"name": "",
							"type": "bool"
						}
					],
					"stateMutability": "view",
					"type": "function"
				}
			],
			"devdoc": {
				"kind": "dev",
				"methods": {},
				"version": 1
			},
			"evm": {
				"assembly": "    /* \"AccessControl.sol\":60:923  contract AccessControl {... */\n  mstore(0x40, 0x80)\n  callvalue\n  dup1\n  iszero\n  tag_1\n  jumpi\n  0x00\n  dup1\n  revert\ntag_1:\n  pop\n  dataSize(sub_0)\n  dup1\n  dataOffset(sub_0)\n  0x00\n  codecopy\n  0x00\n  return\nstop\n\nsub_0: assembly {\n        /* \"AccessControl.sol\":60:923  contract AccessControl {... */\n      mstore(0x40, 0x80)\n      callvalue\n      dup1\n      iszero\n      tag_1\n      jumpi\n      0x00\n      dup1\n      revert\n    tag_1:\n      pop\n      jumpi(tag_2, lt(calldatasize, 0x04))\n      shr(0xe0, calldataload(0x00))\n      dup1\n      0x25200f05\n      eq\n      tag_3\n      jumpi\n      dup1\n      0x83177db3\n      eq\n      tag_4\n      jumpi\n    tag_2:\n      0x00\n      dup1\n      revert\n        /* \"AccessControl.sol\":306:566  function grantAccess(bytes32 fileHash, address user, uint256 duration) public {... */\n    tag_3:\n      tag_5\n      0x04\n      dup1\n      calldatasize\n      sub\n      dup2\n      add\n      swap1\n      tag_6\n      swap2\n      swap1\n      tag_7\n      jump\t// in\n    tag_6:\n      tag_8\n      jump\t// in\n    tag_5:\n      stop\n        /* \"AccessControl.sol\":574:920  function hasAccess(bytes32 fileHash, address user) public view returns (bool) {... */\n    tag_4:\n      tag_9\n      0x04\n      dup1\n      calldatasize\n      sub\n      dup2\n      add\n      swap1\n      tag_10\n      swap2\n      swap1\n      tag_11\n      jump\t// in\n    tag_10:\n      tag_12\n      jump\t// in\n    tag_9:\n      mload(0x40)\n      tag_13\n      swap2\n      swap1\n      tag_14\n      jump\t// in\n    tag_13:\n      mload(0x40)\n      dup1\n      swap2\n      sub\n      swap1\n      return\n        /* \"AccessControl.sol\":306:566  function grantAccess(bytes32 fileHash, address user, uint256 duration) public {... */\n    tag_8:\n        /* \"AccessControl.sol\":395:412  uint256 expiresAt */\n      0x00\n        /* \"AccessControl.sol\":433:441  duration */\n      dup2\n        /* \"AccessControl.sol\":415:430  block.timestamp */\n      timestamp\n        /* \"AccessControl.sol\":415:441  block.timestamp + duration */\n      tag_16\n      swap2\n      swap1\n      tag_17\n      jump\t// in\n    tag_16:\n        /* \"AccessControl.sol\":395:441  uint256 expiresAt = block.timestamp + duration */\n      swap1\n      pop\n        /* \"AccessControl.sol\":452:462  fileAccess */\n      0x00\n        /* \"AccessControl.sol\":452:472  fileAccess[fileHash] */\n      dup1\n        /* \"AccessControl.sol\":463:471  fileHash */\n      dup6\n        /* \"AccessControl.sol\":452:472  fileAccess[fileHash] */\n      dup2\n      mstore\n      0x20\n      add\n      swap1\n      dup2\n      mstore\n      0x20\n      add\n      0x00\n      keccak256\n        /* \"AccessControl.sol\":478:501  Access(user, expiresAt) */\n      mload(0x40)\n      dup1\n      0x40\n      add\n      0x40\n      mstore\n      dup1\n        /* \"AccessControl.sol\":485:489  user */\n      dup6\n        /* \"AccessControl.sol\":478:501  Access(user, expiresAt) */\n      0xffffffffffffffffffffffffffffffffffffffff\n      and\n      dup2\n      mstore\n      0x20\n      add\n        /* \"AccessControl.sol\":491:500  expiresAt */\n      dup4\n        /* \"AccessControl.sol\":478:501  Access(user, expiresAt) */\n      dup2\n      mstore\n      pop\n        /* \"AccessControl.sol\":452:502  fileAccess[fileHash].push(Access(user, expiresAt)) */\n      swap1\n      dup1\n      0x01\n      dup2\n      sload\n      add\n      dup1\n      dup3\n      sstore\n      dup1\n      swap2\n      pop\n      pop\n      0x01\n      swap1\n      sub\n      swap1\n      0x00\n      mstore\n      keccak256(0x00, 0x20)\n      swap1\n      0x02\n      mul\n      add\n      0x00\n      swap1\n      swap2\n      swap1\n      swap2\n      swap1\n      swap2\n      pop\n      0x00\n      dup3\n      add\n      mload\n      dup2\n      0x00\n      add\n      exp(0x0100, 0x00)\n      dup2\n      sload\n      dup2\n      0xffffffffffffffffffffffffffffffffffffffff\n      mul\n      not\n      and\n      swap1\n      dup4\n      0xffffffffffffffffffffffffffffffffffffffff\n      and\n      mul\n      or\n      swap1\n      sstore\n      pop\n      0x20\n      dup3\n      add\n      mload\n      dup2\n      0x01\n      add\n      sstore\n      pop\n      pop\n        /* \"AccessControl.sol\":518:558  AccessGranted(fileHash, user, expiresAt) */\n      0xfb0d878058fa0fa7787395856cffd8a6cc8c542d9d67a0c121fe56be1c658959\n        /* \"AccessControl.sol\":532:540  fileHash */\n      dup5\n        /* \"AccessControl.sol\":542:546  user */\n      dup5\n        /* \"AccessControl.sol\":548:557  expiresAt */\n      dup4\n        /* \"AccessControl.sol\":518:558  AccessGranted(fileHash, user, expiresAt) */\n      mload(0x40)\n      tag_19\n      swap4\n      swap3\n      swap2\n      swap1\n      tag_20\n      jump\t// in\n    tag_19:\n      mload(0x40)\n      dup1\n      swap2\n      sub\n      swap1\n      log1\n        /* \"AccessControl.sol\":384:566  {... */\n      pop\n        /* \"AccessControl.sol\":306:566  function grantAccess(bytes32 fileHash, address user, uint256 duration) public {... */\n      pop\n      pop\n      pop\n      jump\t// out\n        /* \"AccessControl.sol\":574:920  function hasAccess(bytes32 fileHash, address user) public view returns (bool) {... */\n    tag_12:\n        /* \"AccessControl.sol\":646:650  bool */\n      0x00\n        /* \"AccessControl.sol\":668:677  uint256 i */\n      dup1\n        /* \"AccessControl.sol\":680:681  0 */\n      0x00\n        /* \"AccessControl.sol\":668:681  uint256 i = 0 */\n      swap1\n      pop\n        /* \"AccessControl.sol\":663:890  for (uint256 i = 0; i < fileAccess[fileHash].length; i++) {... */\n    tag_22:\n        /* \"AccessControl.sol\":687:697  fileAccess */\n      0x00\n        /* \"AccessControl.sol\":687:707  fileAccess[fileHash] */\n      dup1\n        /* \"AccessControl.sol\":698:706  fileHash */\n      dup6\n        /* \"AccessControl.sol\":687:707  fileAccess[fileHash] */\n      dup2\n      mstore\n      0x20\n      add\n      swap1\n      dup2\n      mstore\n      0x20\n      add\n      0x00\n      keccak256\n        /* \"AccessControl.sol\":687:714  fileAccess[fileHash].length */\n      dup1\n      sload\n      swap1\n      pop\n        /* \"AccessControl.sol\":683:684  i */\n      dup2\n        /* \"AccessControl.sol\":683:714  i < fileAccess[fileHash].length */\n      lt\n        /* \"AccessControl.sol\":663:890  for (uint256 i = 0; i < fileAccess[fileHash].length; i++) {... */\n      iszero\n      tag_23\n      jumpi\n        /* \"AccessControl.sol\":772:776  user */\n      dup3\n        /* \"AccessControl.sol\":740:776  fileAccess[fileHash][i].user == user */\n      0xffffffffffffffffffffffffffffffffffffffff\n      and\n        /* \"AccessControl.sol\":740:750  fileAccess */\n      0x00\n        /* \"AccessControl.sol\":740:760  fileAccess[fileHash] */\n      dup1\n        /* \"AccessControl.sol\":751:759  fileHash */\n      dup7\n        /* \"AccessControl.sol\":740:760  fileAccess[fileHash] */\n      dup2\n      mstore\n      0x20\n      add\n      swap1\n      dup2\n      mstore\n      0x20\n      add\n      0x00\n      keccak256\n        /* \"AccessControl.sol\":761:762  i */\n      dup3\n        /* \"AccessControl.sol\":740:763  fileAccess[fileHash][i] */\n      dup2\n      sload\n      dup2\n      lt\n      tag_25\n      jumpi\n      tag_26\n      tag_27\n      jump\t// in\n    tag_26:\n    tag_25:\n      swap1\n      0x00\n      mstore\n      keccak256(0x00, 0x20)\n      swap1\n      0x02\n      mul\n      add\n        /* \"AccessControl.sol\":740:768  fileAccess[fileHash][i].user */\n      0x00\n      add\n      0x00\n      swap1\n      sload\n      swap1\n      0x0100\n      exp\n      swap1\n      div\n      0xffffffffffffffffffffffffffffffffffffffff\n      and\n        /* \"AccessControl.sol\":740:776  fileAccess[fileHash][i].user == user */\n      0xffffffffffffffffffffffffffffffffffffffff\n      and\n      eq\n        /* \"AccessControl.sol\":740:831  fileAccess[fileHash][i].user == user && fileAccess[fileHash][i].expiresAt > block.timestamp */\n      dup1\n      iszero\n      tag_29\n      jumpi\n      pop\n        /* \"AccessControl.sol\":816:831  block.timestamp */\n      timestamp\n        /* \"AccessControl.sol\":780:790  fileAccess */\n      0x00\n        /* \"AccessControl.sol\":780:800  fileAccess[fileHash] */\n      dup1\n        /* \"AccessControl.sol\":791:799  fileHash */\n      dup7\n        /* \"AccessControl.sol\":780:800  fileAccess[fileHash] */\n      dup2\n      mstore\n      0x20\n      add\n      swap1\n      dup2\n      mstore\n      0x20\n      add\n      0x00\n      keccak256\n        /* \"AccessControl.sol\":801:802  i */\n      dup3\n        /* \"AccessControl.sol\":780:803  fileAccess[fileHash][i] */\n      dup2\n      sload\n      dup2\n      lt\n      tag_30\n      jumpi\n      tag_31\n      tag_27\n      jump\t// in\n    tag_31:\n    tag_30:\n      swap1\n      0x00\n      mstore\n      keccak256(0x00, 0x20)\n      swap1\n      0x02\n      mul\n      add\n        /* \"AccessControl.sol\":780:813  fileAccess[fileHash][i].expiresAt */\n      0x01\n      add\n      sload\n        /* \"AccessControl.sol\":780:831  fileAccess[fileHash][i].expiresAt > block.timestamp */\n      gt\n        /* \"AccessControl.sol\":740:831  fileAccess[fileHash][i].user == user && fileAccess[fileHash][i].expiresAt > block.timestamp */\n    tag_29:\n        /* \"AccessControl.sol\":736:879  if (fileAccess[fileHash][i].user == user && fileAccess[fileHash][i].expiresAt > block.timestamp) {... */\n      iszero\n      tag_33\n      jumpi\n        /* \"AccessControl.sol\":859:863  true */\n      0x01\n        /* \"AccessControl.sol\":852:863  return true */\n      swap2\n      pop\n      pop\n      jump(tag_21)\n        /* \"AccessControl.sol\":736:879  if (fileAccess[fileHash][i].user == user && fileAccess[fileHash][i].expiresAt > block.timestamp) {... */\n    tag_33:\n        /* \"AccessControl.sol\":716:719  i++ */\n      dup1\n      dup1\n      0x01\n      add\n      swap2\n      pop\n      pop\n        /* \"AccessControl.sol\":663:890  for (uint256 i = 0; i < fileAccess[fileHash].length; i++) {... */\n      jump(tag_22)\n    tag_23:\n      pop\n        /* \"AccessControl.sol\":907:912  false */\n      0x00\n        /* \"AccessControl.sol\":900:912  return false */\n      swap1\n      pop\n        /* \"AccessControl.sol\":574:920  function hasAccess(bytes32 fileHash, address user) public view returns (bool) {... */\n    tag_21:\n      swap3\n      swap2\n      pop\n      pop\n      jump\t// out\n        /* \"#utility.yul\":88:205   */\n    tag_35:\n        /* \"#utility.yul\":197:198   */\n      0x00\n        /* \"#utility.yul\":194:195   */\n      dup1\n        /* \"#utility.yul\":187:199   */\n      revert\n        /* \"#utility.yul\":334:411   */\n    tag_37:\n        /* \"#utility.yul\":371:378   */\n      0x00\n        /* \"#utility.yul\":400:405   */\n      dup2\n        /* \"#utility.yul\":389:405   */\n      swap1\n      pop\n        /* \"#utility.yul\":334:411   */\n      swap2\n      swap1\n      pop\n      jump\t// out\n        /* \"#utility.yul\":417:539   */\n    tag_38:\n        /* \"#utility.yul\":490:514   */\n      tag_59\n        /* \"#utility.yul\":508:513   */\n      dup2\n        /* \"#utility.yul\":490:514   */\n      tag_37\n      jump\t// in\n    tag_59:\n        /* \"#utility.yul\":483:488   */\n      dup2\n        /* \"#utility.yul\":480:515   */\n      eq\n        /* \"#utility.yul\":470:533   */\n      tag_60\n      jumpi\n        /* \"#utility.yul\":529:530   */\n      0x00\n        /* \"#utility.yul\":526:527   */\n      dup1\n        /* \"#utility.yul\":519:531   */\n      revert\n        /* \"#utility.yul\":470:533   */\n    tag_60:\n        /* \"#utility.yul\":417:539   */\n      pop\n      jump\t// out\n        /* \"#utility.yul\":545:684   */\n    tag_39:\n        /* \"#utility.yul\":591:596   */\n      0x00\n        /* \"#utility.yul\":629:635   */\n      dup2\n        /* \"#utility.yul\":616:636   */\n      calldataload\n        /* \"#utility.yul\":607:636   */\n      swap1\n      pop\n        /* \"#utility.yul\":645:678   */\n      tag_62\n        /* \"#utility.yul\":672:677   */\n      dup2\n        /* \"#utility.yul\":645:678   */\n      tag_38\n      jump\t// in\n    tag_62:\n        /* \"#utility.yul\":545:684   */\n      swap3\n      swap2\n      pop\n      pop\n      jump\t// out\n        /* \"#utility.yul\":690:816   */\n    tag_40:\n        /* \"#utility.yul\":727:734   */\n      0x00\n        /* \"#utility.yul\":767:809   */\n      0xffffffffffffffffffffffffffffffffffffffff\n        /* \"#utility.yul\":760:765   */\n      dup3\n        /* \"#utility.yul\":756:810   */\n      and\n        /* \"#utility.yul\":745:810   */\n      swap1\n      pop\n        /* \"#utility.yul\":690:816   */\n      swap2\n      swap1\n      pop\n      jump\t// out\n        /* \"#utility.yul\":822:918   */\n    tag_41:\n        /* \"#utility.yul\":859:866   */\n      0x00\n        /* \"#utility.yul\":888:912   */\n      tag_65\n        /* \"#utility.yul\":906:911   */\n      dup3\n        /* \"#utility.yul\":888:912   */\n      tag_40\n      jump\t// in\n    tag_65:\n        /* \"#utility.yul\":877:912   */\n      swap1\n      pop\n        /* \"#utility.yul\":822:918   */\n      swap2\n      swap1\n      pop\n      jump\t// out\n        /* \"#utility.yul\":924:1046   */\n    tag_42:\n        /* \"#utility.yul\":997:1021   */\n      tag_67\n        /* \"#utility.yul\":1015:1020   */\n      dup2\n        /* \"#utility.yul\":997:1021   */\n      tag_41\n      jump\t// in\n    tag_67:\n        /* \"#utility.yul\":990:995   */\n      dup2\n        /* \"#utility.yul\":987:1022   */\n      eq\n        /* \"#utility.yul\":977:1040   */\n      tag_68\n      jumpi\n        /* \"#utility.yul\":1036:1037   */\n      0x00\n        /* \"#utility.yul\":1033:1034   */\n      dup1\n        /* \"#utility.yul\":1026:1038   */\n      revert\n        /* \"#utility.yul\":977:1040   */\n    tag_68:\n        /* \"#utility.yul\":924:1046   */\n      pop\n      jump\t// out\n        /* \"#utility.yul\":1052:1191   */\n    tag_43:\n        /* \"#utility.yul\":1098:1103   */\n      0x00\n        /* \"#utility.yul\":1136:1142   */\n      dup2\n        /* \"#utility.yul\":1123:1143   */\n      calldataload\n        /* \"#utility.yul\":1114:1143   */\n      swap1\n      pop\n        /* \"#utility.yul\":1152:1185   */\n      tag_70\n        /* \"#utility.yul\":1179:1184   */\n      dup2\n        /* \"#utility.yul\":1152:1185   */\n      tag_42\n      jump\t// in\n    tag_70:\n        /* \"#utility.yul\":1052:1191   */\n      swap3\n      swap2\n      pop\n      pop\n      jump\t// out\n        /* \"#utility.yul\":1197:1274   */\n    tag_44:\n        /* \"#utility.yul\":1234:1241   */\n      0x00\n        /* \"#utility.yul\":1263:1268   */\n      dup2\n        /* \"#utility.yul\":1252:1268   */\n      swap1\n      pop\n        /* \"#utility.yul\":1197:1274   */\n      swap2\n      swap1\n      pop\n      jump\t// out\n        /* \"#utility.yul\":1280:1402   */\n    tag_45:\n        /* \"#utility.yul\":1353:1377   */\n      tag_73\n        /* \"#utility.yul\":1371:1376   */\n      dup2\n        /* \"#utility.yul\":1353:1377   */\n      tag_44\n      jump\t// in\n    tag_73:\n        /* \"#utility.yul\":1346:1351   */\n      dup2\n        /* \"#utility.yul\":1343:1378   */\n      eq\n        /* \"#utility.yul\":1333:1396   */\n      tag_74\n      jumpi\n        /* \"#utility.yul\":1392:1393   */\n      0x00\n        /* \"#utility.yul\":1389:1390   */\n      dup1\n        /* \"#utility.yul\":1382:1394   */\n      revert\n        /* \"#utility.yul\":1333:1396   */\n    tag_74:\n        /* \"#utility.yul\":1280:1402   */\n      pop\n      jump\t// out\n        /* \"#utility.yul\":1408:1547   */\n    tag_46:\n        /* \"#utility.yul\":1454:1459   */\n      0x00\n        /* \"#utility.yul\":1492:1498   */\n      dup2\n        /* \"#utility.yul\":1479:1499   */\n      calldataload\n        /* \"#utility.yul\":1470:1499   */\n      swap1\n      pop\n        /* \"#utility.yul\":1508:1541   */\n      tag_76\n        /* \"#utility.yul\":1535:1540   */\n      dup2\n        /* \"#utility.yul\":1508:1541   */\n      tag_45\n      jump\t// in\n    tag_76:\n        /* \"#utility.yul\":1408:1547   */\n      swap3\n      swap2\n      pop\n      pop\n      jump\t// out\n        /* \"#utility.yul\":1553:2172   */\n    tag_7:\n        /* \"#utility.yul\":1630:1636   */\n      0x00\n        /* \"#utility.yul\":1638:1644   */\n      dup1\n        /* \"#utility.yul\":1646:1652   */\n      0x00\n        /* \"#utility.yul\":1695:1697   */\n      0x60\n        /* \"#utility.yul\":1683:1692   */\n      dup5\n        /* \"#utility.yul\":1674:1681   */\n      dup7\n        /* \"#utility.yul\":1670:1693   */\n      sub\n        /* \"#utility.yul\":1666:1698   */\n      slt\n        /* \"#utility.yul\":1663:1782   */\n      iszero\n      tag_78\n      jumpi\n        /* \"#utility.yul\":1701:1780   */\n      tag_79\n      tag_35\n      jump\t// in\n    tag_79:\n        /* \"#utility.yul\":1663:1782   */\n    tag_78:\n        /* \"#utility.yul\":1821:1822   */\n      0x00\n        /* \"#utility.yul\":1846:1899   */\n      tag_80\n        /* \"#utility.yul\":1891:1898   */\n      dup7\n        /* \"#utility.yul\":1882:1888   */\n      dup3\n        /* \"#utility.yul\":1871:1880   */\n      dup8\n        /* \"#utility.yul\":1867:1889   */\n      add\n        /* \"#utility.yul\":1846:1899   */\n      tag_39\n      jump\t// in\n    tag_80:\n        /* \"#utility.yul\":1836:1899   */\n      swap4\n      pop\n        /* \"#utility.yul\":1792:1909   */\n      pop\n        /* \"#utility.yul\":1948:1950   */\n      0x20\n        /* \"#utility.yul\":1974:2027   */\n      tag_81\n        /* \"#utility.yul\":2019:2026   */\n      dup7\n        /* \"#utility.yul\":2010:2016   */\n      dup3\n        /* \"#utility.yul\":1999:2008   */\n      dup8\n        /* \"#utility.yul\":1995:2017   */\n      add\n        /* \"#utility.yul\":1974:2027   */\n      tag_43\n      jump\t// in\n    tag_81:\n        /* \"#utility.yul\":1964:2027   */\n      swap3\n      pop\n        /* \"#utility.yul\":1919:2037   */\n      pop\n        /* \"#utility.yul\":2076:2078   */\n      0x40\n        /* \"#utility.yul\":2102:2155   */\n      tag_82\n        /* \"#utility.yul\":2147:2154   */\n      dup7\n        /* \"#utility.yul\":2138:2144   */\n      dup3\n        /* \"#utility.yul\":2127:2136   */\n      dup8\n        /* \"#utility.yul\":2123:2145   */\n      add\n        /* \"#utility.yul\":2102:2155   */\n      tag_46\n      jump\t// in\n    tag_82:\n        /* \"#utility.yul\":2092:2155   */\n      swap2\n      pop\n        /* \"#utility.yul\":2047:2165   */\n      pop\n        /* \"#utility.yul\":1553:2172   */\n      swap3\n      pop\n      swap3\n      pop\n      swap3\n      jump\t// out\n        /* \"#utility.yul\":2178:2652   */\n    tag_11:\n        /* \"#utility.yul\":2246:2252   */\n      0x00\n        /* \"#utility.yul\":2254:2260   */\n      dup1\n        /* \"#utility.yul\":2303:2305   */\n      0x40\n        /* \"#utility.yul\":2291:2300   */\n      dup4\n        /* \"#utility.yul\":2282:2289   */\n      dup6\n        /* \"#utility.yul\":2278:2301   */\n      sub\n        /* \"#utility.yul\":2274:2306   */\n      slt\n        /* \"#utility.yul\":2271:2390   */\n      iszero\n      tag_84\n      jumpi\n        /* \"#utility.yul\":2309:2388   */\n      tag_85\n      tag_35\n      jump\t// in\n    tag_85:\n        /* \"#utility.yul\":2271:2390   */\n    tag_84:\n        /* \"#utility.yul\":2429:2430   */\n      0x00\n        /* \"#utility.yul\":2454:2507   */\n      tag_86\n        /* \"#utility.yul\":2499:2506   */\n      dup6\n        /* \"#utility.yul\":2490:2496   */\n      dup3\n        /* \"#utility.yul\":2479:2488   */\n      dup7\n        /* \"#utility.yul\":2475:2497   */\n      add\n        /* \"#utility.yul\":2454:2507   */\n      tag_39\n      jump\t// in\n    tag_86:\n        /* \"#utility.yul\":2444:2507   */\n      swap3\n      pop\n        /* \"#utility.yul\":2400:2517   */\n      pop\n        /* \"#utility.yul\":2556:2558   */\n      0x20\n        /* \"#utility.yul\":2582:2635   */\n      tag_87\n        /* \"#utility.yul\":2627:2634   */\n      dup6\n        /* \"#utility.yul\":2618:2624   */\n      dup3\n        /* \"#utility.yul\":2607:2616   */\n      dup7\n        /* \"#utility.yul\":2603:2625   */\n      add\n        /* \"#utility.yul\":2582:2635   */\n      tag_43\n      jump\t// in\n    tag_87:\n        /* \"#utility.yul\":2572:2635   */\n      swap2\n      pop\n        /* \"#utility.yul\":2527:2645   */\n      pop\n        /* \"#utility.yul\":2178:2652   */\n      swap3\n      pop\n      swap3\n      swap1\n      pop\n      jump\t// out\n        /* \"#utility.yul\":2658:2748   */\n    tag_47:\n        /* \"#utility.yul\":2692:2699   */\n      0x00\n        /* \"#utility.yul\":2735:2740   */\n      dup2\n        /* \"#utility.yul\":2728:2741   */\n      iszero\n        /* \"#utility.yul\":2721:2742   */\n      iszero\n        /* \"#utility.yul\":2710:2742   */\n      swap1\n      pop\n        /* \"#utility.yul\":2658:2748   */\n      swap2\n      swap1\n      pop\n      jump\t// out\n        /* \"#utility.yul\":2754:2863   */\n    tag_48:\n        /* \"#utility.yul\":2835:2856   */\n      tag_90\n        /* \"#utility.yul\":2850:2855   */\n      dup2\n        /* \"#utility.yul\":2835:2856   */\n      tag_47\n      jump\t// in\n    tag_90:\n        /* \"#utility.yul\":2830:2833   */\n      dup3\n        /* \"#utility.yul\":2823:2857   */\n      mstore\n        /* \"#utility.yul\":2754:2863   */\n      pop\n      pop\n      jump\t// out\n        /* \"#utility.yul\":2869:3079   */\n    tag_14:\n        /* \"#utility.yul\":2956:2960   */\n      0x00\n        /* \"#utility.yul\":2994:2996   */\n      0x20\n        /* \"#utility.yul\":2983:2992   */\n      dup3\n        /* \"#utility.yul\":2979:2997   */\n      add\n        /* \"#utility.yul\":2971:2997   */\n      swap1\n      pop\n        /* \"#utility.yul\":3007:3072   */\n      tag_92\n        /* \"#utility.yul\":3069:3070   */\n      0x00\n        /* \"#utility.yul\":3058:3067   */\n      dup4\n        /* \"#utility.yul\":3054:3071   */\n      add\n        /* \"#utility.yul\":3045:3051   */\n      dup5\n        /* \"#utility.yul\":3007:3072   */\n      tag_48\n      jump\t// in\n    tag_92:\n        /* \"#utility.yul\":2869:3079   */\n      swap3\n      swap2\n      pop\n      pop\n      jump\t// out\n        /* \"#utility.yul\":3085:3265   */\n    tag_49:\n        /* \"#utility.yul\":3133:3210   */\n      0x4e487b7100000000000000000000000000000000000000000000000000000000\n        /* \"#utility.yul\":3130:3131   */\n      0x00\n        /* \"#utility.yul\":3123:3211   */\n      mstore\n        /* \"#utility.yul\":3230:3234   */\n      0x11\n        /* \"#utility.yul\":3227:3228   */\n      0x04\n        /* \"#utility.yul\":3220:3235   */\n      mstore\n        /* \"#utility.yul\":3254:3258   */\n      0x24\n        /* \"#utility.yul\":3251:3252   */\n      0x00\n        /* \"#utility.yul\":3244:3259   */\n      revert\n        /* \"#utility.yul\":3271:3462   */\n    tag_17:\n        /* \"#utility.yul\":3311:3314   */\n      0x00\n        /* \"#utility.yul\":3330:3350   */\n      tag_95\n        /* \"#utility.yul\":3348:3349   */\n      dup3\n        /* \"#utility.yul\":3330:3350   */\n      tag_44\n      jump\t// in\n    tag_95:\n        /* \"#utility.yul\":3325:3350   */\n      swap2\n      pop\n        /* \"#utility.yul\":3364:3384   */\n      tag_96\n        /* \"#utility.yul\":3382:3383   */\n      dup4\n        /* \"#utility.yul\":3364:3384   */\n      tag_44\n      jump\t// in\n    tag_96:\n        /* \"#utility.yul\":3359:3384   */\n      swap3\n      pop\n        /* \"#utility.yul\":3407:3408   */\n      dup3\n        /* \"#utility.yul\":3404:3405   */\n      dup3\n        /* \"#utility.yul\":3400:3409   */\n      add\n        /* \"#utility.yul\":3393:3409   */\n      swap1\n      pop\n        /* \"#utility.yul\":3428:3431   */\n      dup1\n        /* \"#utility.yul\":3425:3426   */\n      dup3\n        /* \"#utility.yul\":3422:3432   */\n      gt\n        /* \"#utility.yul\":3419:3455   */\n      iszero\n      tag_97\n      jumpi\n        /* \"#utility.yul\":3435:3453   */\n      tag_98\n      tag_49\n      jump\t// in\n    tag_98:\n        /* \"#utility.yul\":3419:3455   */\n    tag_97:\n        /* \"#utility.yul\":3271:3462   */\n      swap3\n      swap2\n      pop\n      pop\n      jump\t// out\n        /* \"#utility.yul\":3468:3586   */\n    tag_50:\n        /* \"#utility.yul\":3555:3579   */\n      tag_100\n        /* \"#utility.yul\":3573:3578   */\n      dup2\n        /* \"#utility.yul\":3555:3579   */\n      tag_37\n      jump\t// in\n    tag_100:\n        /* \"#utility.yul\":3550:3553   */\n      dup3\n        /* \"#utility.yul\":3543:3580   */\n      mstore\n        /* \"#utility.yul\":3468:3586   */\n      pop\n      pop\n      jump\t// out\n        /* \"#utility.yul\":3592:3710   */\n    tag_51:\n        /* \"#utility.yul\":3679:3703   */\n      tag_102\n        /* \"#utility.yul\":3697:3702   */\n      dup2\n        /* \"#utility.yul\":3679:3703   */\n      tag_41\n      jump\t// in\n    tag_102:\n        /* \"#utility.yul\":3674:3677   */\n      dup3\n        /* \"#utility.yul\":3667:3704   */\n      mstore\n        /* \"#utility.yul\":3592:3710   */\n      pop\n      pop\n      jump\t// out\n        /* \"#utility.yul\":3716:3834   */\n    tag_52:\n        /* \"#utility.yul\":3803:3827   */\n      tag_104\n        /* \"#utility.yul\":3821:3826   */\n      dup2\n        /* \"#utility.yul\":3803:3827   */\n      tag_44\n      jump\t// in\n    tag_104:\n        /* \"#utility.yul\":3798:3801   */\n      dup3\n        /* \"#utility.yul\":3791:3828   */\n      mstore\n        /* \"#utility.yul\":3716:3834   */\n      pop\n      pop\n      jump\t// out\n        /* \"#utility.yul\":3840:4282   */\n    tag_20:\n        /* \"#utility.yul\":3989:3993   */\n      0x00\n        /* \"#utility.yul\":4027:4029   */\n      0x60\n        /* \"#utility.yul\":4016:4025   */\n      dup3\n        /* \"#utility.yul\":4012:4030   */\n      add\n        /* \"#utility.yul\":4004:4030   */\n      swap1\n      pop\n        /* \"#utility.yul\":4040:4111   */\n      tag_106\n        /* \"#utility.yul\":4108:4109   */\n      0x00\n        /* \"#utility.yul\":4097:4106   */\n      dup4\n        /* \"#utility.yul\":4093:4110   */\n      add\n        /* \"#utility.yul\":4084:4090   */\n      dup7\n        /* \"#utility.yul\":4040:4111   */\n      tag_50\n      jump\t// in\n    tag_106:\n        /* \"#utility.yul\":4121:4193   */\n      tag_107\n        /* \"#utility.yul\":4189:4191   */\n      0x20\n        /* \"#utility.yul\":4178:4187   */\n      dup4\n        /* \"#utility.yul\":4174:4192   */\n      add\n        /* \"#utility.yul\":4165:4171   */\n      dup6\n        /* \"#utility.yul\":4121:4193   */\n      tag_51\n      jump\t// in\n    tag_107:\n        /* \"#utility.yul\":4203:4275   */\n      tag_108\n        /* \"#utility.yul\":4271:4273   */\n      0x40\n        /* \"#utility.yul\":4260:4269   */\n      dup4\n        /* \"#utility.yul\":4256:4274   */\n      add\n        /* \"#utility.yul\":4247:4253   */\n      dup5\n        /* \"#utility.yul\":4203:4275   */\n      tag_52\n      jump\t// in\n    tag_108:\n        /* \"#utility.yul\":3840:4282   */\n      swap5\n      swap4\n      pop\n      pop\n      pop\n      pop\n      jump\t// out\n        /* \"#utility.yul\":4288:4468   */\n    tag_27:\n        /* \"#utility.yul\":4336:4413   */\n      0x4e487b7100000000000000000000000000000000000000000000000000000000\n        /* \"#utility.yul\":4333:4334   */\n      0x00\n        /* \"#utility.yul\":4326:4414   */\n      mstore\n        /* \"#utility.yul\":4433:4437   */\n      0x32\n        /* \"#utility.yul\":4430:4431   */\n      0x04\n        /* \"#utility.yul\":4423:4438   */\n      mstore\n        /* \"#utility.yul\":4457:4461   */\n      0x24\n        /* \"#utility.yul\":4454:4455   */\n      0x00\n        /* \"#utility.yul\":4447:4462   */\n      revert\n\n    auxdata: 0xa264697066735822122070f83d248bbe32eb837b7d2363cf1d92e063f426d708a6d2bb86842231ee967964736f6c634300081a0033\n}\n",
				"bytecode": {
					"linkReferences": {},
					"object": "6080604052348015600e575f80fd5b506105318061001c5f395ff3fe608060405234801561000f575f80fd5b5060043610610034575f3560e01c806325200f051461003857806383177db314610054575b5f80fd5b610052600480360381019061004d919061034b565b610084565b005b61006e6004803603810190610069919061039b565b610185565b60405161007b91906103f3565b60405180910390f35b5f81426100919190610439565b90505f808581526020019081526020015f2060405180604001604052808573ffffffffffffffffffffffffffffffffffffffff16815260200183815250908060018154018082558091505060019003905f5260205f2090600202015f909190919091505f820151815f015f6101000a81548173ffffffffffffffffffffffffffffffffffffffff021916908373ffffffffffffffffffffffffffffffffffffffff1602179055506020820151816001015550507ffb0d878058fa0fa7787395856cffd8a6cc8c542d9d67a0c121fe56be1c65895984848360405161017793929190610499565b60405180910390a150505050565b5f805f90505b5f808581526020019081526020015f208054905081101561027c578273ffffffffffffffffffffffffffffffffffffffff165f808681526020019081526020015f2082815481106101df576101de6104ce565b5b905f5260205f2090600202015f015f9054906101000a900473ffffffffffffffffffffffffffffffffffffffff1673ffffffffffffffffffffffffffffffffffffffff161480156102605750425f808681526020019081526020015f20828154811061024e5761024d6104ce565b5b905f5260205f20906002020160010154115b1561026f576001915050610281565b808060010191505061018b565b505f90505b92915050565b5f80fd5b5f819050919050565b61029d8161028b565b81146102a7575f80fd5b50565b5f813590506102b881610294565b92915050565b5f73ffffffffffffffffffffffffffffffffffffffff82169050919050565b5f6102e7826102be565b9050919050565b6102f7816102dd565b8114610301575f80fd5b50565b5f81359050610312816102ee565b92915050565b5f819050919050565b61032a81610318565b8114610334575f80fd5b50565b5f8135905061034581610321565b92915050565b5f805f6060848603121561036257610361610287565b5b5f61036f868287016102aa565b935050602061038086828701610304565b925050604061039186828701610337565b9150509250925092565b5f80604083850312156103b1576103b0610287565b5b5f6103be858286016102aa565b92505060206103cf85828601610304565b9150509250929050565b5f8115159050919050565b6103ed816103d9565b82525050565b5f6020820190506104065f8301846103e4565b92915050565b7f4e487b71000000000000000000000000000000000000000000000000000000005f52601160045260245ffd5b5f61044382610318565b915061044e83610318565b92508282019050808211156104665761046561040c565b5b92915050565b6104758161028b565b82525050565b610484816102dd565b82525050565b61049381610318565b82525050565b5f6060820190506104ac5f83018661046c565b6104b9602083018561047b565b6104c6604083018461048a565b949350505050565b7f4e487b71000000000000000000000000000000000000000000000000000000005f52603260045260245ffdfea264697066735822122070f83d248bbe32eb837b7d2363cf1d92e063f426d708a6d2bb86842231ee967964736f6c634300081a0033",
					"opcodes": "PUSH1 0x80 PUSH1 0x40 MSTORE CALLVALUE DUP1 ISZERO PUSH1 0xE JUMPI PUSH0 DUP1 REVERT JUMPDEST POP PUSH2 0x531 DUP1 PUSH2 0x1C PUSH0 CODECOPY PUSH0 RETURN INVALID PUSH1 0x80 PUSH1 0x40 MSTORE CALLVALUE DUP1 ISZERO PUSH2 0xF JUMPI PUSH0 DUP1 REVERT JUMPDEST POP PUSH1 0x4 CALLDATASIZE LT PUSH2 0x34 JUMPI PUSH0 CALLDATALOAD PUSH1 0xE0 SHR DUP1 PUSH4 0x25200F05 EQ PUSH2 0x38 JUMPI DUP1 PUSH4 0x83177DB3 EQ PUSH2 0x54 JUMPI JUMPDEST PUSH0 DUP1 REVERT JUMPDEST PUSH2 0x52 PUSH1 0x4 DUP1 CALLDATASIZE SUB DUP2 ADD SWAP1 PUSH2 0x4D SWAP2 SWAP1 PUSH2 0x34B JUMP JUMPDEST PUSH2 0x84 JUMP JUMPDEST STOP JUMPDEST PUSH2 0x6E PUSH1 0x4 DUP1 CALLDATASIZE SUB DUP2 ADD SWAP1 PUSH2 0x69 SWAP2 SWAP1 PUSH2 0x39B JUMP JUMPDEST PUSH2 0x185 JUMP JUMPDEST PUSH1 0x40 MLOAD PUSH2 0x7B SWAP2 SWAP1 PUSH2 0x3F3 JUMP JUMPDEST PUSH1 0x40 MLOAD DUP1 SWAP2 SUB SWAP1 RETURN JUMPDEST PUSH0 DUP2 TIMESTAMP PUSH2 0x91 SWAP2 SWAP1 PUSH2 0x439 JUMP JUMPDEST SWAP1 POP PUSH0 DUP1 DUP6 DUP2 MSTORE PUSH1 0x20 ADD SWAP1 DUP2 MSTORE PUSH1 0x20 ADD PUSH0 KECCAK256 PUSH1 0x40 MLOAD DUP1 PUSH1 0x40 ADD PUSH1 0x40 MSTORE DUP1 DUP6 PUSH20 0xFFFFFFFFFFFFFFFFFFFFFFFFFFFFFFFFFFFFFFFF AND DUP2 MSTORE PUSH1 0x20 ADD DUP4 DUP2 MSTORE POP SWAP1 DUP1 PUSH1 0x1 DUP2 SLOAD ADD DUP1 DUP3 SSTORE DUP1 SWAP2 POP POP PUSH1 0x1 SWAP1 SUB SWAP1 PUSH0 MSTORE PUSH1 0x20 PUSH0 KECCAK256 SWAP1 PUSH1 0x2 MUL ADD PUSH0 SWAP1 SWAP2 SWAP1 SWAP2 SWAP1 SWAP2 POP PUSH0 DUP3 ADD MLOAD DUP2 PUSH0 ADD PUSH0 PUSH2 0x100 EXP DUP2 SLOAD DUP2 PUSH20 0xFFFFFFFFFFFFFFFFFFFFFFFFFFFFFFFFFFFFFFFF MUL NOT AND SWAP1 DUP4 PUSH20 0xFFFFFFFFFFFFFFFFFFFFFFFFFFFFFFFFFFFFFFFF AND MUL OR SWAP1 SSTORE POP PUSH1 0x20 DUP3 ADD MLOAD DUP2 PUSH1 0x1 ADD SSTORE POP POP PUSH32 0xFB0D878058FA0FA7787395856CFFD8A6CC8C542D9D67A0C121FE56BE1C658959 DUP5 DUP5 DUP4 PUSH1 0x40 MLOAD PUSH2 0x177 SWAP4 SWAP3 SWAP2 SWAP1 PUSH2 0x499 JUMP JUMPDEST PUSH1 0x40 MLOAD DUP1 SWAP2 SUB SWAP1 LOG1 POP POP POP POP JUMP JUMPDEST PUSH0 DUP1 PUSH0 SWAP1 POP JUMPDEST PUSH0 DUP1 DUP6 DUP2 MSTORE PUSH1 0x20 ADD SWAP1 DUP2 MSTORE PUSH1 0x20 ADD PUSH0 KECCAK256 DUP1 SLOAD SWAP1 POP DUP2 LT ISZERO PUSH2 0x27C JUMPI DUP3 PUSH20 0xFFFFFFFFFFFFFFFFFFFFFFFFFFFFFFFFFFFFFFFF AND PUSH0 DUP1 DUP7 DUP2 MSTORE PUSH1 0x20 ADD SWAP1 DUP2 MSTORE PUSH1 0x20 ADD PUSH0 KECCAK256 DUP3 DUP2 SLOAD DUP2 LT PUSH2 0x1DF JUMPI PUSH2 0x1DE PUSH2 0x4CE JUMP JUMPDEST JUMPDEST SWAP1 PUSH0 MSTORE PUSH1 0x20 PUSH0 KECCAK256 SWAP1 PUSH1 0x2 MUL ADD PUSH0 ADD PUSH0 SWAP1 SLOAD SWAP1 PUSH2 0x100 EXP SWAP1 DIV PUSH20 0xFFFFFFFFFFFFFFFFFFFFFFFFFFFFFFFFFFFFFFFF AND PUSH20 0xFFFFFFFFFFFFFFFFFFFFFFFFFFFFFFFFFFFFFFFF AND EQ DUP1 ISZERO PUSH2 0x260 JUMPI POP TIMESTAMP PUSH0 DUP1 DUP7 DUP2 MSTORE PUSH1 0x20 ADD SWAP1 DUP2 MSTORE PUSH1 0x20 ADD PUSH0 KECCAK256 DUP3 DUP2 SLOAD DUP2 LT PUSH2 0x24E JUMPI PUSH2 0x24D PUSH2 0x4CE JUMP JUMPDEST JUMPDEST SWAP1 PUSH0 MSTORE PUSH1 0x20 PUSH0 KECCAK256 SWAP1 PUSH1 0x2 MUL ADD PUSH1 0x1 ADD SLOAD GT JUMPDEST ISZERO PUSH2 0x26F JUMPI PUSH1 0x1 SWAP2 POP POP PUSH2 0x281 JUMP JUMPDEST DUP1 DUP1 PUSH1 0x1 ADD SWAP2 POP POP PUSH2 0x18B JUMP JUMPDEST POP PUSH0 SWAP1 POP JUMPDEST SWAP3 SWAP2 POP POP JUMP JUMPDEST PUSH0 DUP1 REVERT JUMPDEST PUSH0 DUP2 SWAP1 POP SWAP2 SWAP1 POP JUMP JUMPDEST PUSH2 0x29D DUP2 PUSH2 0x28B JUMP JUMPDEST DUP2 EQ PUSH2 0x2A7 JUMPI PUSH0 DUP1 REVERT JUMPDEST POP JUMP JUMPDEST PUSH0 DUP2 CALLDATALOAD SWAP1 POP PUSH2 0x2B8 DUP2 PUSH2 0x294 JUMP JUMPDEST SWAP3 SWAP2 POP POP JUMP JUMPDEST PUSH0 PUSH20 0xFFFFFFFFFFFFFFFFFFFFFFFFFFFFFFFFFFFFFFFF DUP3 AND SWAP1 POP SWAP2 SWAP1 POP JUMP JUMPDEST PUSH0 PUSH2 0x2E7 DUP3 PUSH2 0x2BE JUMP JUMPDEST SWAP1 POP SWAP2 SWAP1 POP JUMP JUMPDEST PUSH2 0x2F7 DUP2 PUSH2 0x2DD JUMP JUMPDEST DUP2 EQ PUSH2 0x301 JUMPI PUSH0 DUP1 REVERT JUMPDEST POP JUMP JUMPDEST PUSH0 DUP2 CALLDATALOAD SWAP1 POP PUSH2 0x312 DUP2 PUSH2 0x2EE JUMP JUMPDEST SWAP3 SWAP2 POP POP JUMP JUMPDEST PUSH0 DUP2 SWAP1 POP SWAP2 SWAP1 POP JUMP JUMPDEST PUSH2 0x32A DUP2 PUSH2 0x318 JUMP JUMPDEST DUP2 EQ PUSH2 0x334 JUMPI PUSH0 DUP1 REVERT JUMPDEST POP JUMP JUMPDEST PUSH0 DUP2 CALLDATALOAD SWAP1 POP PUSH2 0x345 DUP2 PUSH2 0x321 JUMP JUMPDEST SWAP3 SWAP2 POP POP JUMP JUMPDEST PUSH0 DUP1 PUSH0 PUSH1 0x60 DUP5 DUP7 SUB SLT ISZERO PUSH2 0x362 JUMPI PUSH2 0x361 PUSH2 0x287 JUMP JUMPDEST JUMPDEST PUSH0 PUSH2 0x36F DUP7 DUP3 DUP8 ADD PUSH2 0x2AA JUMP JUMPDEST SWAP4 POP POP PUSH1 0x20 PUSH2 0x380 DUP7 DUP3 DUP8 ADD PUSH2 0x304 JUMP JUMPDEST SWAP3 POP POP PUSH1 0x40 PUSH2 0x391 DUP7 DUP3 DUP8 ADD PUSH2 0x337 JUMP JUMPDEST SWAP2 POP POP SWAP3 POP SWAP3 POP SWAP3 JUMP JUMPDEST PUSH0 DUP1 PUSH1 0x40 DUP4 DUP6 SUB SLT ISZERO PUSH2 0x3B1 JUMPI PUSH2 0x3B0 PUSH2 0x287 JUMP JUMPDEST JUMPDEST PUSH0 PUSH2 0x3BE DUP6 DUP3 DUP7 ADD PUSH2 0x2AA JUMP JUMPDEST SWAP3 POP POP PUSH1 0x20 PUSH2 0x3CF DUP6 DUP3 DUP7 ADD PUSH2 0x304 JUMP JUMPDEST SWAP2 POP POP SWAP3 POP SWAP3 SWAP1 POP JUMP JUMPDEST PUSH0 DUP2 ISZERO ISZERO SWAP1 POP SWAP2 SWAP1 POP JUMP JUMPDEST PUSH2 0x3ED DUP2 PUSH2 0x3D9 JUMP JUMPDEST DUP3 MSTORE POP POP JUMP JUMPDEST PUSH0 PUSH1 0x20 DUP3 ADD SWAP1 POP PUSH2 0x406 PUSH0 DUP4 ADD DUP5 PUSH2 0x3E4 JUMP JUMPDEST SWAP3 SWAP2 POP POP JUMP JUMPDEST PUSH32 0x4E487B7100000000000000000000000000000000000000000000000000000000 PUSH0 MSTORE PUSH1 0x11 PUSH1 0x4 MSTORE PUSH1 0x24 PUSH0 REVERT JUMPDEST PUSH0 PUSH2 0x443 DUP3 PUSH2 0x318 JUMP JUMPDEST SWAP2 POP PUSH2 0x44E DUP4 PUSH2 0x318 JUMP JUMPDEST SWAP3 POP DUP3 DUP3 ADD SWAP1 POP DUP1 DUP3 GT ISZERO PUSH2 0x466 JUMPI PUSH2 0x465 PUSH2 0x40C JUMP JUMPDEST JUMPDEST SWAP3 SWAP2 POP POP JUMP JUMPDEST PUSH2 0x475 DUP2 PUSH2 0x28B JUMP JUMPDEST DUP3 MSTORE POP POP JUMP JUMPDEST PUSH2 0x484 DUP2 PUSH2 0x2DD JUMP JUMPDEST DUP3 MSTORE POP POP JUMP JUMPDEST PUSH2 0x493 DUP2 PUSH2 0x318 JUMP JUMPDEST DUP3 MSTORE POP POP JUMP JUMPDEST PUSH0 PUSH1 0x60 DUP3 ADD SWAP1 POP PUSH2 0x4AC PUSH0 DUP4 ADD DUP7 PUSH2 0x46C JUMP JUMPDEST PUSH2 0x4B9 PUSH1 0x20 DUP4 ADD DUP6 PUSH2 0x47B JUMP JUMPDEST PUSH2 0x4C6 PUSH1 0x40 DUP4 ADD DUP5 PUSH2 0x48A JUMP JUMPDEST SWAP5 SWAP4 POP POP POP POP JUMP JUMPDEST PUSH32 0x4E487B7100000000000000000000000000000000000000000000000000000000 PUSH0 MSTORE PUSH1 0x32 PUSH1 0x4 MSTORE PUSH1 0x24 PUSH0 REVERT INVALID LOG2 PUSH5 0x6970667358 0x22 SLT KECCAK256 PUSH17 0xF83D248BBE32EB837B7D2363CF1D92E063 DELEGATECALL 0x26 0xD7 ADDMOD 0xA6 0xD2 0xBB DUP7 DUP5 0x22 BALANCE 0xEE SWAP7 PUSH26 0x64736F6C634300081A0033000000000000000000000000000000 "
				},
				"gasEstimates": {
					"creation": {
						"codeDepositCost": "265800",
						"executionCost": "304",
						"totalCost": "266104"
					},
					"external": {
						"grantAccess(bytes32,address,uint256)": "infinite",
						"hasAccess(bytes32,address)": "infinite"
					}
				},
				"methodIdentifiers": {
					"grantAccess(bytes32,address,uint256)": "25200f05",
					"hasAccess(bytes32,address)": "83177db3"
				}
			},
			"storageLayout": {
				"storage": [
					{
						"astId": 190,
						"contract": "AccessControl.sol:AccessControl",
						"label": "fileAccess",
						"offset": 0,
						"slot": "0",
						"type": "t_mapping(t_bytes32,t_array(t_struct(Access)184_storage)dyn_storage)"
					}
				],
				"types": {
					"t_address": {
						"encoding": "inplace",
						"label": "address",
						"numberOfBytes": "20"
					},
					"t_array(t_struct(Access)184_storage)dyn_storage": {
						"base": "t_struct(Access)184_storage",
						"encoding": "dynamic_array",
						"label": "struct AccessControl.Access[]",
						"numberOfBytes": "32"
					},
					"t_bytes32": {
						"encoding": "inplace",
						"label": "bytes32",
						"numberOfBytes": "32"
					},
					"t_mapping(t_bytes32,t_array(t_struct(Access)184_storage)dyn_storage)": {
						"encoding": "mapping",
						"key": "t_bytes32",
						"label": "mapping(bytes32 => struct AccessControl.Access[])",
						"numberOfBytes": "32",
						"value": "t_array(t_struct(Access)184_storage)dyn_storage"
					},
					"t_struct(Access)184_storage": {
						"encoding": "inplace",
						"label": "struct AccessControl.Access",
						"members": [
							{
								"astId": 181,
								"contract": "AccessControl.sol:AccessControl",
								"label": "user",
								"offset": 0,
								"slot": "0",
								"type": "t_address"
							},
							{
								"astId": 183,
								"contract": "AccessControl.sol:AccessControl",
								"label": "expiresAt",
								"offset": 0,
								"slot": "1",
								"type": "t_uint256"
							}
						],
						"numberOfBytes": "64"
					},
					"t_uint256": {
						"encoding": "inplace",
						"label": "uint256",
						"numberOfBytes": "32"
					}
				}
			},
			"userdoc": {
				"kind": "user",
				"methods": {},
				"version": 1
			}
		}
	}
}