{
	"PaymentManager.sol": {
		"PaymentManager": {
			"abi": [
				{
					"anonymous": false,
					"inputs": [
						{
							"indexed": false,
							"internalType": "address",
							"name": "from",
							"type": "address"
						},
						{
							"indexed": false,
							"internalType": "address",
							"name": "to",
							"type": "address"
						},
						{
							"indexed": false,
							"internalType": "uint256",
							"name": "amount",
							"type": "uint256"
						}
					],
					"name": "PaymentReceived",
					"type": "event"
				},
				{
					"inputs": [
						{
							"internalType": "address",
							"name": "",
							"type": "address"
						}
					],
					"name": "balances",
					"outputs": [
						{
							"internalType": "uint256",
							"name": "",
							"type": "uint256"
						}
					],
					"stateMutability": "view",
					"type": "function"
				},
				{
					"inputs": [
						{
							"internalType": "address payable",
							"name": "recipient",
							"type": "address"
						}
					],
					"name": "pay",
					"outputs": [],
					"stateMutability": "payable",
					"type": "function"
				},
				{
					"inputs": [],
					"name": "withdraw",
					"outputs": [],
					"stateMutability": "nonpayable",
					"type": "function"
				}
			],
			"devdoc": {
				"kind": "dev",
				"methods": {},
				"version": 1
			},
			"evm": {
				"assembly": "    /* \"PaymentManager.sol\":60:686  contract PaymentManager {... */\n  mstore(0x40, 0x80)\n  callvalue\n  dup1\n  iszero\n  tag_1\n  jumpi\n  0x00\n  dup1\n  revert\ntag_1:\n  pop\n  dataSize(sub_0)\n  dup1\n  dataOffset(sub_0)\n  0x00\n  codecopy\n  0x00\n  return\nstop\n\nsub_0: assembly {\n        /* \"PaymentManager.sol\":60:686  contract PaymentManager {... */\n      mstore(0x40, 0x80)\n      jumpi(tag_1, lt(calldatasize, 0x04))\n      shr(0xe0, calldataload(0x00))\n      dup1\n      0x0c11dedd\n      eq\n      tag_2\n      jumpi\n      dup1\n      0x27e235e3\n      eq\n      tag_3\n      jumpi\n      dup1\n      0x3ccfd60b\n      eq\n      tag_4\n      jumpi\n    tag_1:\n      0x00\n      dup1\n      revert\n        /* \"PaymentManager.sol\":215:456  function pay(address payable recipient) public payable {... */\n    tag_2:\n      tag_5\n      0x04\n      dup1\n      calldatasize\n      sub\n      dup2\n      add\n      swap1\n      tag_6\n      swap2\n      swap1\n      tag_7\n      jump\t// in\n    tag_6:\n      tag_8\n      jump\t// in\n    tag_5:\n      stop\n        /* \"PaymentManager.sol\":91:134  mapping(address => uint256) public balances */\n    tag_3:\n      callvalue\n      dup1\n      iszero\n      tag_9\n      jumpi\n      0x00\n      dup1\n      revert\n    tag_9:\n      pop\n      tag_10\n      0x04\n      dup1\n      calldatasize\n      sub\n      dup2\n      add\n      swap1\n      tag_11\n      swap2\n      swap1\n      tag_12\n      jump\t// in\n    tag_11:\n      tag_13\n      jump\t// in\n    tag_10:\n      mload(0x40)\n      tag_14\n      swap2\n      swap1\n      tag_15\n      jump\t// in\n    tag_14:\n      mload(0x40)\n      dup1\n      swap2\n      sub\n      swap1\n      return\n        /* \"PaymentManager.sol\":464:683  function withdraw() public {... */\n    tag_4:\n      callvalue\n      dup1\n      iszero\n      tag_16\n      jumpi\n      0x00\n      dup1\n      revert\n    tag_16:\n      pop\n      tag_17\n      tag_18\n      jump\t// in\n    tag_17:\n      stop\n        /* \"PaymentManager.sol\":215:456  function pay(address payable recipient) public payable {... */\n    tag_8:\n        /* \"PaymentManager.sol\":301:302  0 */\n      0x00\n        /* \"PaymentManager.sol\":289:298  msg.value */\n      callvalue\n        /* \"PaymentManager.sol\":289:302  msg.value > 0 */\n      gt\n        /* \"PaymentManager.sol\":281:340  require(msg.value > 0, \"Payment must be greater than zero\") */\n      tag_20\n      jumpi\n      mload(0x40)\n      0x08c379a000000000000000000000000000000000000000000000000000000000\n      dup2\n      mstore\n      0x04\n      add\n      tag_21\n      swap1\n      tag_22\n      jump\t// in\n    tag_21:\n      mload(0x40)\n      dup1\n      swap2\n      sub\n      swap1\n      revert\n    tag_20:\n        /* \"PaymentManager.sol\":374:383  msg.value */\n      callvalue\n        /* \"PaymentManager.sol\":351:359  balances */\n      0x00\n        /* \"PaymentManager.sol\":351:370  balances[recipient] */\n      dup1\n        /* \"PaymentManager.sol\":360:369  recipient */\n      dup4\n        /* \"PaymentManager.sol\":351:370  balances[recipient] */\n      0xffffffffffffffffffffffffffffffffffffffff\n      and\n      0xffffffffffffffffffffffffffffffffffffffff\n      and\n      dup2\n      mstore\n      0x20\n      add\n      swap1\n      dup2\n      mstore\n      0x20\n      add\n      0x00\n      keccak256\n      0x00\n        /* \"PaymentManager.sol\":351:383  balances[recipient] += msg.value */\n      dup3\n      dup3\n      sload\n      tag_23\n      swap2\n      swap1\n      tag_24\n      jump\t// in\n    tag_23:\n      swap3\n      pop\n      pop\n      dup2\n      swap1\n      sstore\n      pop\n        /* \"PaymentManager.sol\":399:448  PaymentReceived(msg.sender, recipient, msg.value) */\n      0x45fdc265dc29885b9a485766b03e70978440d38c7c328ee0a14fa40c76c6af54\n        /* \"PaymentManager.sol\":415:425  msg.sender */\n      caller\n        /* \"PaymentManager.sol\":427:436  recipient */\n      dup3\n        /* \"PaymentManager.sol\":438:447  msg.value */\n      callvalue\n        /* \"PaymentManager.sol\":399:448  PaymentReceived(msg.sender, recipient, msg.value) */\n      mload(0x40)\n      tag_25\n      swap4\n      swap3\n      swap2\n      swap1\n      tag_26\n      jump\t// in\n    tag_25:\n      mload(0x40)\n      dup1\n      swap2\n      sub\n      swap1\n      log1\n        /* \"PaymentManager.sol\":215:456  function pay(address payable recipient) public payable {... */\n      pop\n      jump\t// out\n        /* \"PaymentManager.sol\":91:134  mapping(address => uint256) public balances */\n    tag_13:\n      mstore(0x20, 0x00)\n      dup1\n      0x00\n      mstore\n      keccak256(0x00, 0x40)\n      0x00\n      swap2\n      pop\n      swap1\n      pop\n      sload\n      dup2\n      jump\t// out\n        /* \"PaymentManager.sol\":464:683  function withdraw() public {... */\n    tag_18:\n        /* \"PaymentManager.sol\":502:516  uint256 amount */\n      0x00\n        /* \"PaymentManager.sol\":519:527  balances */\n      dup1\n        /* \"PaymentManager.sol\":519:539  balances[msg.sender] */\n      0x00\n        /* \"PaymentManager.sol\":528:538  msg.sender */\n      caller\n        /* \"PaymentManager.sol\":519:539  balances[msg.sender] */\n      0xffffffffffffffffffffffffffffffffffffffff\n      and\n      0xffffffffffffffffffffffffffffffffffffffff\n      and\n      dup2\n      mstore\n      0x20\n      add\n      swap1\n      dup2\n      mstore\n      0x20\n      add\n      0x00\n      keccak256\n      sload\n        /* \"PaymentManager.sol\":502:539  uint256 amount = balances[msg.sender] */\n      swap1\n      pop\n        /* \"PaymentManager.sol\":567:568  0 */\n      0x00\n        /* \"PaymentManager.sol\":558:564  amount */\n      dup2\n        /* \"PaymentManager.sol\":558:568  amount > 0 */\n      gt\n        /* \"PaymentManager.sol\":550:593  require(amount > 0, \"No funds to withdraw\") */\n      tag_28\n      jumpi\n      mload(0x40)\n      0x08c379a000000000000000000000000000000000000000000000000000000000\n      dup2\n      mstore\n      0x04\n      add\n      tag_29\n      swap1\n      tag_30\n      jump\t// in\n    tag_29:\n      mload(0x40)\n      dup1\n      swap2\n      sub\n      swap1\n      revert\n    tag_28:\n        /* \"PaymentManager.sol\":627:628  0 */\n      0x00\n        /* \"PaymentManager.sol\":604:612  balances */\n      dup1\n        /* \"PaymentManager.sol\":604:624  balances[msg.sender] */\n      0x00\n        /* \"PaymentManager.sol\":613:623  msg.sender */\n      caller\n        /* \"PaymentManager.sol\":604:624  balances[msg.sender] */\n      0xffffffffffffffffffffffffffffffffffffffff\n      and\n      0xffffffffffffffffffffffffffffffffffffffff\n      and\n      dup2\n      mstore\n      0x20\n      add\n      swap1\n      dup2\n      mstore\n      0x20\n      add\n      0x00\n      keccak256\n        /* \"PaymentManager.sol\":604:628  balances[msg.sender] = 0 */\n      dup2\n      swap1\n      sstore\n      pop\n        /* \"PaymentManager.sol\":647:657  msg.sender */\n      caller\n        /* \"PaymentManager.sol\":639:667  payable(msg.sender).transfer */\n      0xffffffffffffffffffffffffffffffffffffffff\n      and\n        /* \"PaymentManager.sol\":639:675  payable(msg.sender).transfer(amount) */\n      0x08fc\n        /* \"PaymentManager.sol\":668:674  amount */\n      dup3\n        /* \"PaymentManager.sol\":639:675  payable(msg.sender).transfer(amount) */\n      swap1\n      dup2\n      iszero\n      mul\n      swap1\n      mload(0x40)\n      0x00\n      mload(0x40)\n      dup1\n      dup4\n      sub\n      dup2\n      dup6\n      dup9\n      dup9\n      call\n      swap4\n      pop\n      pop\n      pop\n      pop\n      iszero\n      dup1\n      iszero\n      tag_32\n      jumpi\n      returndatasize\n      0x00\n      dup1\n      returndatacopy\n      revert(0x00, returndatasize)\n    tag_32:\n      pop\n        /* \"PaymentManager.sol\":491:683  {... */\n      pop\n        /* \"PaymentManager.sol\":464:683  function withdraw() public {... */\n      jump\t// out\n        /* \"#utility.yul\":88:205   */\n    tag_34:\n        /* \"#utility.yul\":197:198   */\n      0x00\n        /* \"#utility.yul\":194:195   */\n      dup1\n        /* \"#utility.yul\":187:199   */\n      revert\n        /* \"#utility.yul\":334:460   */\n    tag_36:\n        /* \"#utility.yul\":371:378   */\n      0x00\n        /* \"#utility.yul\":411:453   */\n      0xffffffffffffffffffffffffffffffffffffffff\n        /* \"#utility.yul\":404:409   */\n      dup3\n        /* \"#utility.yul\":400:454   */\n      and\n        /* \"#utility.yul\":389:454   */\n      swap1\n      pop\n        /* \"#utility.yul\":334:460   */\n      swap2\n      swap1\n      pop\n      jump\t// out\n        /* \"#utility.yul\":466:570   */\n    tag_37:\n        /* \"#utility.yul\":511:518   */\n      0x00\n        /* \"#utility.yul\":540:564   */\n      tag_63\n        /* \"#utility.yul\":558:563   */\n      dup3\n        /* \"#utility.yul\":540:564   */\n      tag_36\n      jump\t// in\n    tag_63:\n        /* \"#utility.yul\":529:564   */\n      swap1\n      pop\n        /* \"#utility.yul\":466:570   */\n      swap2\n      swap1\n      pop\n      jump\t// out\n        /* \"#utility.yul\":576:714   */\n    tag_38:\n        /* \"#utility.yul\":657:689   */\n      tag_65\n        /* \"#utility.yul\":683:688   */\n      dup2\n        /* \"#utility.yul\":657:689   */\n      tag_37\n      jump\t// in\n    tag_65:\n        /* \"#utility.yul\":650:655   */\n      dup2\n        /* \"#utility.yul\":647:690   */\n      eq\n        /* \"#utility.yul\":637:708   */\n      tag_66\n      jumpi\n        /* \"#utility.yul\":704:705   */\n      0x00\n        /* \"#utility.yul\":701:702   */\n      dup1\n        /* \"#utility.yul\":694:706   */\n      revert\n        /* \"#utility.yul\":637:708   */\n    tag_66:\n        /* \"#utility.yul\":576:714   */\n      pop\n      jump\t// out\n        /* \"#utility.yul\":720:875   */\n    tag_39:\n        /* \"#utility.yul\":774:779   */\n      0x00\n        /* \"#utility.yul\":812:818   */\n      dup2\n        /* \"#utility.yul\":799:819   */\n      calldataload\n        /* \"#utility.yul\":790:819   */\n      swap1\n      pop\n        /* \"#utility.yul\":828:869   */\n      tag_68\n        /* \"#utility.yul\":863:868   */\n      dup2\n        /* \"#utility.yul\":828:869   */\n      tag_38\n      jump\t// in\n    tag_68:\n        /* \"#utility.yul\":720:875   */\n      swap3\n      swap2\n      pop\n      pop\n      jump\t// out\n        /* \"#utility.yul\":881:1226   */\n    tag_7:\n        /* \"#utility.yul\":948:954   */\n      0x00\n        /* \"#utility.yul\":997:999   */\n      0x20\n        /* \"#utility.yul\":985:994   */\n      dup3\n        /* \"#utility.yul\":976:983   */\n      dup5\n        /* \"#utility.yul\":972:995   */\n      sub\n        /* \"#utility.yul\":968:1000   */\n      slt\n        /* \"#utility.yul\":965:1084   */\n      iszero\n      tag_70\n      jumpi\n        /* \"#utility.yul\":1003:1082   */\n      tag_71\n      tag_34\n      jump\t// in\n    tag_71:\n        /* \"#utility.yul\":965:1084   */\n    tag_70:\n        /* \"#utility.yul\":1123:1124   */\n      0x00\n        /* \"#utility.yul\":1148:1209   */\n      tag_72\n        /* \"#utility.yul\":1201:1208   */\n      dup5\n        /* \"#utility.yul\":1192:1198   */\n      dup3\n        /* \"#utility.yul\":1181:1190   */\n      dup6\n        /* \"#utility.yul\":1177:1199   */\n      add\n        /* \"#utility.yul\":1148:1209   */\n      tag_39\n      jump\t// in\n    tag_72:\n        /* \"#utility.yul\":1138:1209   */\n      swap2\n      pop\n        /* \"#utility.yul\":1094:1219   */\n      pop\n        /* \"#utility.yul\":881:1226   */\n      swap3\n      swap2\n      pop\n      pop\n      jump\t// out\n        /* \"#utility.yul\":1232:1328   */\n    tag_40:\n        /* \"#utility.yul\":1269:1276   */\n      0x00\n        /* \"#utility.yul\":1298:1322   */\n      tag_74\n        /* \"#utility.yul\":1316:1321   */\n      dup3\n        /* \"#utility.yul\":1298:1322   */\n      tag_36\n      jump\t// in\n    tag_74:\n        /* \"#utility.yul\":1287:1322   */\n      swap1\n      pop\n        /* \"#utility.yul\":1232:1328   */\n      swap2\n      swap1\n      pop\n      jump\t// out\n        /* \"#utility.yul\":1334:1456   */\n    tag_41:\n        /* \"#utility.yul\":1407:1431   */\n      tag_76\n        /* \"#utility.yul\":1425:1430   */\n      dup2\n        /* \"#utility.yul\":1407:1431   */\n      tag_40\n      jump\t// in\n    tag_76:\n        /* \"#utility.yul\":1400:1405   */\n      dup2\n        /* \"#utility.yul\":1397:1432   */\n      eq\n        /* \"#utility.yul\":1387:1450   */\n      tag_77\n      jumpi\n        /* \"#utility.yul\":1446:1447   */\n      0x00\n        /* \"#utility.yul\":1443:1444   */\n      dup1\n        /* \"#utility.yul\":1436:1448   */\n      revert\n        /* \"#utility.yul\":1387:1450   */\n    tag_77:\n        /* \"#utility.yul\":1334:1456   */\n      pop\n      jump\t// out\n        /* \"#utility.yul\":1462:1601   */\n    tag_42:\n        /* \"#utility.yul\":1508:1513   */\n      0x00\n        /* \"#utility.yul\":1546:1552   */\n      dup2\n        /* \"#utility.yul\":1533:1553   */\n      calldataload\n        /* \"#utility.yul\":1524:1553   */\n      swap1\n      pop\n        /* \"#utility.yul\":1562:1595   */\n      tag_79\n        /* \"#utility.yul\":1589:1594   */\n      dup2\n        /* \"#utility.yul\":1562:1595   */\n      tag_41\n      jump\t// in\n    tag_79:\n        /* \"#utility.yul\":1462:1601   */\n      swap3\n      swap2\n      pop\n      pop\n      jump\t// out\n        /* \"#utility.yul\":1607:1936   */\n    tag_12:\n        /* \"#utility.yul\":1666:1672   */\n      0x00\n        /* \"#utility.yul\":1715:1717   */\n      0x20\n        /* \"#utility.yul\":1703:1712   */\n      dup3\n        /* \"#utility.yul\":1694:1701   */\n      dup5\n        /* \"#utility.yul\":1690:1713   */\n      sub\n        /* \"#utility.yul\":1686:1718   */\n      slt\n        /* \"#utility.yul\":1683:1802   */\n      iszero\n      tag_81\n      jumpi\n        /* \"#utility.yul\":1721:1800   */\n      tag_82\n      tag_34\n      jump\t// in\n    tag_82:\n        /* \"#utility.yul\":1683:1802   */\n    tag_81:\n        /* \"#utility.yul\":1841:1842   */\n      0x00\n        /* \"#utility.yul\":1866:1919   */\n      tag_83\n        /* \"#utility.yul\":1911:1918   */\n      dup5\n        /* \"#utility.yul\":1902:1908   */\n      dup3\n        /* \"#utility.yul\":1891:1900   */\n      dup6\n        /* \"#utility.yul\":1887:1909   */\n      add\n        /* \"#utility.yul\":1866:1919   */\n      tag_42\n      jump\t// in\n    tag_83:\n        /* \"#utility.yul\":1856:1919   */\n      swap2\n      pop\n        /* \"#utility.yul\":1812:1929   */\n      pop\n        /* \"#utility.yul\":1607:1936   */\n      swap3\n      swap2\n      pop\n      pop\n      jump\t// out\n        /* \"#utility.yul\":1942:2019   */\n    tag_43:\n        /* \"#utility.yul\":1979:1986   */\n      0x00\n        /* \"#utility.yul\":2008:2013   */\n      dup2\n        /* \"#utility.yul\":1997:2013   */\n      swap1\n      pop\n        /* \"#utility.yul\":1942:2019   */\n      swap2\n      swap1\n      pop\n      jump\t// out\n        /* \"#utility.yul\":2025:2143   */\n    tag_44:\n        /* \"#utility.yul\":2112:2136   */\n      tag_86\n        /* \"#utility.yul\":2130:2135   */\n      dup2\n        /* \"#utility.yul\":2112:2136   */\n      tag_43\n      jump\t// in\n    tag_86:\n        /* \"#utility.yul\":2107:2110   */\n      dup3\n        /* \"#utility.yul\":2100:2137   */\n      mstore\n        /* \"#utility.yul\":2025:2143   */\n      pop\n      pop\n      jump\t// out\n        /* \"#utility.yul\":2149:2371   */\n    tag_15:\n        /* \"#utility.yul\":2242:2246   */\n      0x00\n        /* \"#utility.yul\":2280:2282   */\n      0x20\n        /* \"#utility.yul\":2269:2278   */\n      dup3\n        /* \"#utility.yul\":2265:2283   */\n      add\n        /* \"#utility.yul\":2257:2283   */\n      swap1\n      pop\n        /* \"#utility.yul\":2293:2364   */\n      tag_88\n        /* \"#utility.yul\":2361:2362   */\n      0x00\n        /* \"#utility.yul\":2350:2359   */\n      dup4\n        /* \"#utility.yul\":2346:2363   */\n      add\n        /* \"#utility.yul\":2337:2343   */\n      dup5\n        /* \"#utility.yul\":2293:2364   */\n      tag_44\n      jump\t// in\n    tag_88:\n        /* \"#utility.yul\":2149:2371   */\n      swap3\n      swap2\n      pop\n      pop\n      jump\t// out\n        /* \"#utility.yul\":2377:2546   */\n    tag_45:\n        /* \"#utility.yul\":2461:2472   */\n      0x00\n        /* \"#utility.yul\":2495:2501   */\n      dup3\n        /* \"#utility.yul\":2490:2493   */\n      dup3\n        /* \"#utility.yul\":2483:2502   */\n      mstore\n        /* \"#utility.yul\":2535:2539   */\n      0x20\n        /* \"#utility.yul\":2530:2533   */\n      dup3\n        /* \"#utility.yul\":2526:2540   */\n      add\n        /* \"#utility.yul\":2511:2540   */\n      swap1\n      pop\n        /* \"#utility.yul\":2377:2546   */\n      swap3\n      swap2\n      pop\n      pop\n      jump\t// out\n        /* \"#utility.yul\":2552:2772   */\n    tag_46:\n        /* \"#utility.yul\":2692:2726   */\n      0x5061796d656e74206d7573742062652067726561746572207468616e207a6572\n        /* \"#utility.yul\":2688:2689   */\n      0x00\n        /* \"#utility.yul\":2680:2686   */\n      dup3\n        /* \"#utility.yul\":2676:2690   */\n      add\n        /* \"#utility.yul\":2669:2727   */\n      mstore\n        /* \"#utility.yul\":2761:2764   */\n      0x6f00000000000000000000000000000000000000000000000000000000000000\n        /* \"#utility.yul\":2756:2758   */\n      0x20\n        /* \"#utility.yul\":2748:2754   */\n      dup3\n        /* \"#utility.yul\":2744:2759   */\n      add\n        /* \"#utility.yul\":2737:2765   */\n      mstore\n        /* \"#utility.yul\":2552:2772   */\n      pop\n      jump\t// out\n        /* \"#utility.yul\":2778:3144   */\n    tag_47:\n        /* \"#utility.yul\":2920:2923   */\n      0x00\n        /* \"#utility.yul\":2941:3008   */\n      tag_92\n        /* \"#utility.yul\":3005:3007   */\n      0x21\n        /* \"#utility.yul\":3000:3003   */\n      dup4\n        /* \"#utility.yul\":2941:3008   */\n      tag_45\n      jump\t// in\n    tag_92:\n        /* \"#utility.yul\":2934:3008   */\n      swap2\n      pop\n        /* \"#utility.yul\":3017:3110   */\n      tag_93\n        /* \"#utility.yul\":3106:3109   */\n      dup3\n        /* \"#utility.yul\":3017:3110   */\n      tag_46\n      jump\t// in\n    tag_93:\n        /* \"#utility.yul\":3135:3137   */\n      0x40\n        /* \"#utility.yul\":3130:3133   */\n      dup3\n        /* \"#utility.yul\":3126:3138   */\n      add\n        /* \"#utility.yul\":3119:3138   */\n      swap1\n      pop\n        /* \"#utility.yul\":2778:3144   */\n      swap2\n      swap1\n      pop\n      jump\t// out\n        /* \"#utility.yul\":3150:3569   */\n    tag_22:\n        /* \"#utility.yul\":3316:3320   */\n      0x00\n        /* \"#utility.yul\":3354:3356   */\n      0x20\n        /* \"#utility.yul\":3343:3352   */\n      dup3\n        /* \"#utility.yul\":3339:3357   */\n      add\n        /* \"#utility.yul\":3331:3357   */\n      swap1\n      pop\n        /* \"#utility.yul\":3403:3412   */\n      dup2\n        /* \"#utility.yul\":3397:3401   */\n      dup2\n        /* \"#utility.yul\":3393:3413   */\n      sub\n        /* \"#utility.yul\":3389:3390   */\n      0x00\n        /* \"#utility.yul\":3378:3387   */\n      dup4\n        /* \"#utility.yul\":3374:3391   */\n      add\n        /* \"#utility.yul\":3367:3414   */\n      mstore\n        /* \"#utility.yul\":3431:3562   */\n      tag_95\n        /* \"#utility.yul\":3557:3561   */\n      dup2\n        /* \"#utility.yul\":3431:3562   */\n      tag_47\n      jump\t// in\n    tag_95:\n        /* \"#utility.yul\":3423:3562   */\n      swap1\n      pop\n        /* \"#utility.yul\":3150:3569   */\n      swap2\n      swap1\n      pop\n      jump\t// out\n        /* \"#utility.yul\":3575:3755   */\n    tag_48:\n        /* \"#utility.yul\":3623:3700   */\n      0x4e487b7100000000000000000000000000000000000000000000000000000000\n        /* \"#utility.yul\":3620:3621   */\n      0x00\n        /* \"#utility.yul\":3613:3701   */\n      mstore\n        /* \"#utility.yul\":3720:3724   */\n      0x11\n        /* \"#utility.yul\":3717:3718   */\n      0x04\n        /* \"#utility.yul\":3710:3725   */\n      mstore\n        /* \"#utility.yul\":3744:3748   */\n      0x24\n        /* \"#utility.yul\":3741:3742   */\n      0x00\n        /* \"#utility.yul\":3734:3749   */\n      revert\n        /* \"#utility.yul\":3761:3952   */\n    tag_24:\n        /* \"#utility.yul\":3801:3804   */\n      0x00\n        /* \"#utility.yul\":3820:3840   */\n      tag_98\n        /* \"#utility.yul\":3838:3839   */\n      dup3\n        /* \"#utility.yul\":3820:3840   */\n      tag_43\n      jump\t// in\n    tag_98:\n        /* \"#utility.yul\":3815:3840   */\n      swap2\n      pop\n        /* \"#utility.yul\":3854:3874   */\n      tag_99\n        /* \"#utility.yul\":3872:3873   */\n      dup4\n        /* \"#utility.yul\":3854:3874   */\n      tag_43\n      jump\t// in\n    tag_99:\n        /* \"#utility.yul\":3849:3874   */\n      swap3\n      pop\n        /* \"#utility.yul\":3897:3898   */\n      dup3\n        /* \"#utility.yul\":3894:3895   */\n      dup3\n        /* \"#utility.yul\":3890:3899   */\n      add\n        /* \"#utility.yul\":3883:3899   */\n      swap1\n      pop\n        /* \"#utility.yul\":3918:3921   */\n      dup1\n        /* \"#utility.yul\":3915:3916   */\n      dup3\n        /* \"#utility.yul\":3912:3922   */\n      gt\n        /* \"#utility.yul\":3909:3945   */\n      iszero\n      tag_100\n      jumpi\n        /* \"#utility.yul\":3925:3943   */\n      tag_101\n      tag_48\n      jump\t// in\n    tag_101:\n        /* \"#utility.yul\":3909:3945   */\n    tag_100:\n        /* \"#utility.yul\":3761:3952   */\n      swap3\n      swap2\n      pop\n      pop\n      jump\t// out\n        /* \"#utility.yul\":3958:4076   */\n    tag_49:\n        /* \"#utility.yul\":4045:4069   */\n      tag_103\n        /* \"#utility.yul\":4063:4068   */\n      dup2\n        /* \"#utility.yul\":4045:4069   */\n      tag_40\n      jump\t// in\n    tag_103:\n        /* \"#utility.yul\":4040:4043   */\n      dup3\n        /* \"#utility.yul\":4033:4070   */\n      mstore\n        /* \"#utility.yul\":3958:4076   */\n      pop\n      pop\n      jump\t// out\n        /* \"#utility.yul\":4082:4142   */\n    tag_50:\n        /* \"#utility.yul\":4110:4113   */\n      0x00\n        /* \"#utility.yul\":4131:4136   */\n      dup2\n        /* \"#utility.yul\":4124:4136   */\n      swap1\n      pop\n        /* \"#utility.yul\":4082:4142   */\n      swap2\n      swap1\n      pop\n      jump\t// out\n        /* \"#utility.yul\":4148:4290   */\n    tag_51:\n        /* \"#utility.yul\":4198:4207   */\n      0x00\n        /* \"#utility.yul\":4231:4284   */\n      tag_106\n        /* \"#utility.yul\":4249:4283   */\n      tag_107\n        /* \"#utility.yul\":4258:4282   */\n      tag_108\n        /* \"#utility.yul\":4276:4281   */\n      dup5\n        /* \"#utility.yul\":4258:4282   */\n      tag_36\n      jump\t// in\n    tag_108:\n        /* \"#utility.yul\":4249:4283   */\n      tag_50\n      jump\t// in\n    tag_107:\n        /* \"#utility.yul\":4231:4284   */\n      tag_36\n      jump\t// in\n    tag_106:\n        /* \"#utility.yul\":4218:4284   */\n      swap1\n      pop\n        /* \"#utility.yul\":4148:4290   */\n      swap2\n      swap1\n      pop\n      jump\t// out\n        /* \"#utility.yul\":4296:4422   */\n    tag_52:\n        /* \"#utility.yul\":4346:4355   */\n      0x00\n        /* \"#utility.yul\":4379:4416   */\n      tag_110\n        /* \"#utility.yul\":4410:4415   */\n      dup3\n        /* \"#utility.yul\":4379:4416   */\n      tag_51\n      jump\t// in\n    tag_110:\n        /* \"#utility.yul\":4366:4416   */\n      swap1\n      pop\n        /* \"#utility.yul\":4296:4422   */\n      swap2\n      swap1\n      pop\n      jump\t// out\n        /* \"#utility.yul\":4428:4562   */\n    tag_53:\n        /* \"#utility.yul\":4486:4495   */\n      0x00\n        /* \"#utility.yul\":4519:4556   */\n      tag_112\n        /* \"#utility.yul\":4550:4555   */\n      dup3\n        /* \"#utility.yul\":4519:4556   */\n      tag_52\n      jump\t// in\n    tag_112:\n        /* \"#utility.yul\":4506:4556   */\n      swap1\n      pop\n        /* \"#utility.yul\":4428:4562   */\n      swap2\n      swap1\n      pop\n      jump\t// out\n        /* \"#utility.yul\":4568:4715   */\n    tag_54:\n        /* \"#utility.yul\":4663:4708   */\n      tag_114\n        /* \"#utility.yul\":4702:4707   */\n      dup2\n        /* \"#utility.yul\":4663:4708   */\n      tag_53\n      jump\t// in\n    tag_114:\n        /* \"#utility.yul\":4658:4661   */\n      dup3\n        /* \"#utility.yul\":4651:4709   */\n      mstore\n        /* \"#utility.yul\":4568:4715   */\n      pop\n      pop\n      jump\t// out\n        /* \"#utility.yul\":4721:5179   */\n    tag_26:\n        /* \"#utility.yul\":4878:4882   */\n      0x00\n        /* \"#utility.yul\":4916:4918   */\n      0x60\n        /* \"#utility.yul\":4905:4914   */\n      dup3\n        /* \"#utility.yul\":4901:4919   */\n      add\n        /* \"#utility.yul\":4893:4919   */\n      swap1\n      pop\n        /* \"#utility.yul\":4929:5000   */\n      tag_116\n        /* \"#utility.yul\":4997:4998   */\n      0x00\n        /* \"#utility.yul\":4986:4995   */\n      dup4\n        /* \"#utility.yul\":4982:4999   */\n      add\n        /* \"#utility.yul\":4973:4979   */\n      dup7\n        /* \"#utility.yul\":4929:5000   */\n      tag_49\n      jump\t// in\n    tag_116:\n        /* \"#utility.yul\":5010:5090   */\n      tag_117\n        /* \"#utility.yul\":5086:5088   */\n      0x20\n        /* \"#utility.yul\":5075:5084   */\n      dup4\n        /* \"#utility.yul\":5071:5089   */\n      add\n        /* \"#utility.yul\":5062:5068   */\n      dup6\n        /* \"#utility.yul\":5010:5090   */\n      tag_54\n      jump\t// in\n    tag_117:\n        /* \"#utility.yul\":5100:5172   */\n      tag_118\n        /* \"#utility.yul\":5168:5170   */\n      0x40\n        /* \"#utility.yul\":5157:5166   */\n      dup4\n        /* \"#utility.yul\":5153:5171   */\n      add\n        /* \"#utility.yul\":5144:5150   */\n      dup5\n        /* \"#utility.yul\":5100:5172   */\n      tag_44\n      jump\t// in\n    tag_118:\n        /* \"#utility.yul\":4721:5179   */\n      swap5\n      swap4\n      pop\n      pop\n      pop\n      pop\n      jump\t// out\n        /* \"#utility.yul\":5185:5355   */\n    tag_55:\n        /* \"#utility.yul\":5325:5347   */\n      0x4e6f2066756e647320746f207769746864726177000000000000000000000000\n        /* \"#utility.yul\":5321:5322   */\n      0x00\n        /* \"#utility.yul\":5313:5319   */\n      dup3\n        /* \"#utility.yul\":5309:5323   */\n      add\n        /* \"#utility.yul\":5302:5348   */\n      mstore\n        /* \"#utility.yul\":5185:5355   */\n      pop\n      jump\t// out\n        /* \"#utility.yul\":5361:5727   */\n    tag_56:\n        /* \"#utility.yul\":5503:5506   */\n      0x00\n        /* \"#utility.yul\":5524:5591   */\n      tag_121\n        /* \"#utility.yul\":5588:5590   */\n      0x14\n        /* \"#utility.yul\":5583:5586   */\n      dup4\n        /* \"#utility.yul\":5524:5591   */\n      tag_45\n      jump\t// in\n    tag_121:\n        /* \"#utility.yul\":5517:5591   */\n      swap2\n      pop\n        /* \"#utility.yul\":5600:5693   */\n      tag_122\n        /* \"#utility.yul\":5689:5692   */\n      dup3\n        /* \"#utility.yul\":5600:5693   */\n      tag_55\n      jump\t// in\n    tag_122:\n        /* \"#utility.yul\":5718:5720   */\n      0x20\n        /* \"#utility.yul\":5713:5716   */\n      dup3\n        /* \"#utility.yul\":5709:5721   */\n      add\n        /* \"#utility.yul\":5702:5721   */\n      swap1\n      pop\n        /* \"#utility.yul\":5361:5727   */\n      swap2\n      swap1\n      pop\n      jump\t// out\n        /* \"#utility.yul\":5733:6152   */\n    tag_30:\n        /* \"#utility.yul\":5899:5903   */\n      0x00\n        /* \"#utility.yul\":5937:5939   */\n      0x20\n        /* \"#utility.yul\":5926:5935   */\n      dup3\n        /* \"#utility.yul\":5922:5940   */\n      add\n        /* \"#utility.yul\":5914:5940   */\n      swap1\n      pop\n        /* \"#utility.yul\":5986:5995   */\n      dup2\n        /* \"#utility.yul\":5980:5984   */\n      dup2\n        /* \"#utility.yul\":5976:5996   */\n      sub\n        /* \"#utility.yul\":5972:5973   */\n      0x00\n        /* \"#utility.yul\":5961:5970   */\n      dup4\n        /* \"#utility.yul\":5957:5974   */\n      add\n        /* \"#utility.yul\":5950:5997   */\n      mstore\n        /* \"#utility.yul\":6014:6145   */\n      tag_124\n        /* \"#utility.yul\":6140:6144   */\n      dup2\n        /* \"#utility.yul\":6014:6145   */\n      tag_56\n      jump\t// in\n    tag_124:\n        /* \"#utility.yul\":6006:6145   */\n      swap1\n      pop\n        /* \"#utility.yul\":5733:6152   */\n      swap2\n      swap1\n      pop\n      jump\t// out\n\n    auxdata: 0xa2646970667358221220dbe5f091387c1fe00fc0ce184b8580397dc96e06bf70deded08a693dcb582b8664736f6c634300081a0033\n}\n",
				"bytecode": {
					"linkReferences": {},
					"object": "6080604052348015600e575f80fd5b506105f08061001c5f395ff3fe608060405260043610610033575f3560e01c80630c11dedd1461003757806327e235e3146100535780633ccfd60b1461008f575b5f80fd5b610051600480360381019061004c91906102f3565b6100a5565b005b34801561005e575f80fd5b5061007960048036038101906100749190610359565b610177565b604051610086919061039c565b60405180910390f35b34801561009a575f80fd5b506100a361018b565b005b5f34116100e7576040517f08c379a00000000000000000000000000000000000000000000000000000000081526004016100de90610435565b60405180910390fd5b345f808373ffffffffffffffffffffffffffffffffffffffff1673ffffffffffffffffffffffffffffffffffffffff1681526020019081526020015f205f8282546101329190610480565b925050819055507f45fdc265dc29885b9a485766b03e70978440d38c7c328ee0a14fa40c76c6af5433823460405161016c9392919061051d565b60405180910390a150565b5f602052805f5260405f205f915090505481565b5f805f3373ffffffffffffffffffffffffffffffffffffffff1673ffffffffffffffffffffffffffffffffffffffff1681526020019081526020015f205490505f811161020d576040517f08c379a00000000000000000000000000000000000000000000000000000000081526004016102049061059c565b60405180910390fd5b5f805f3373ffffffffffffffffffffffffffffffffffffffff1673ffffffffffffffffffffffffffffffffffffffff1681526020019081526020015f20819055503373ffffffffffffffffffffffffffffffffffffffff166108fc8290811502906040515f60405180830381858888f19350505050158015610291573d5f803e3d5ffd5b5050565b5f80fd5b5f73ffffffffffffffffffffffffffffffffffffffff82169050919050565b5f6102c282610299565b9050919050565b6102d2816102b8565b81146102dc575f80fd5b50565b5f813590506102ed816102c9565b92915050565b5f6020828403121561030857610307610295565b5b5f610315848285016102df565b91505092915050565b5f61032882610299565b9050919050565b6103388161031e565b8114610342575f80fd5b50565b5f813590506103538161032f565b92915050565b5f6020828403121561036e5761036d610295565b5b5f61037b84828501610345565b91505092915050565b5f819050919050565b61039681610384565b82525050565b5f6020820190506103af5f83018461038d565b92915050565b5f82825260208201905092915050565b7f5061796d656e74206d7573742062652067726561746572207468616e207a65725f8201527f6f00000000000000000000000000000000000000000000000000000000000000602082015250565b5f61041f6021836103b5565b915061042a826103c5565b604082019050919050565b5f6020820190508181035f83015261044c81610413565b9050919050565b7f4e487b71000000000000000000000000000000000000000000000000000000005f52601160045260245ffd5b5f61048a82610384565b915061049583610384565b92508282019050808211156104ad576104ac610453565b5b92915050565b6104bc8161031e565b82525050565b5f819050919050565b5f6104e56104e06104db84610299565b6104c2565b610299565b9050919050565b5f6104f6826104cb565b9050919050565b5f610507826104ec565b9050919050565b610517816104fd565b82525050565b5f6060820190506105305f8301866104b3565b61053d602083018561050e565b61054a604083018461038d565b949350505050565b7f4e6f2066756e647320746f2077697468647261770000000000000000000000005f82015250565b5f6105866014836103b5565b915061059182610552565b602082019050919050565b5f6020820190508181035f8301526105b38161057a565b905091905056fea2646970667358221220dbe5f091387c1fe00fc0ce184b8580397dc96e06bf70deded08a693dcb582b8664736f6c634300081a0033",
					"opcodes": "PUSH1 0x80 PUSH1 0x40 MSTORE CALLVALUE DUP1 ISZERO PUSH1 0xE JUMPI PUSH0 DUP1 REVERT JUMPDEST POP PUSH2 0x5F0 DUP1 PUSH2 0x1C PUSH0 CODECOPY PUSH0 RETURN INVALID PUSH1 0x80 PUSH1 0x40 MSTORE PUSH1 0x4 CALLDATASIZE LT PUSH2 0x33 JUMPI PUSH0 CALLDATALOAD PUSH1 0xE0 SHR DUP1 PUSH4 0xC11DEDD EQ PUSH2 0x37 JUMPI DUP1 PUSH4 0x27E235E3 EQ PUSH2 0x53 JUMPI DUP1 PUSH4 0x3CCFD60B EQ PUSH2 0x8F JUMPI JUMPDEST PUSH0 DUP1 REVERT JUMPDEST PUSH2 0x51 PUSH1 0x4 DUP1 CALLDATASIZE SUB DUP2 ADD SWAP1 PUSH2 0x4C SWAP2 SWAP1 PUSH2 0x2F3 JUMP JUMPDEST PUSH2 0xA5 JUMP JUMPDEST STOP JUMPDEST CALLVALUE DUP1 ISZERO PUSH2 0x5E JUMPI PUSH0 DUP1 REVERT JUMPDEST POP PUSH2 0x79 PUSH1 0x4 DUP1 CALLDATASIZE SUB DUP2 ADD SWAP1 PUSH2 0x74 SWAP2 SWAP1 PUSH2 0x359 JUMP JUMPDEST PUSH2 0x177 JUMP JUMPDEST PUSH1 0x40 MLOAD PUSH2 0x86 SWAP2 SWAP1 PUSH2 0x39C JUMP JUMPDEST PUSH1 0x40 MLOAD DUP1 SWAP2 SUB SWAP1 RETURN JUMPDEST CALLVALUE DUP1 ISZERO PUSH2 0x9A JUMPI PUSH0 DUP1 REVERT JUMPDEST POP PUSH2 0xA3 PUSH2 0x18B JUMP JUMPDEST STOP JUMPDEST PUSH0 CALLVALUE GT PUSH2 0xE7 JUMPI PUSH1 0x40 MLOAD PUSH32 0x8C379A000000000000000000000000000000000000000000000000000000000 DUP2 MSTORE PUSH1 0x4 ADD PUSH2 0xDE SWAP1 PUSH2 0x435 JUMP JUMPDEST PUSH1 0x40 MLOAD DUP1 SWAP2 SUB SWAP1 REVERT JUMPDEST CALLVALUE PUSH0 DUP1 DUP4 PUSH20 0xFFFFFFFFFFFFFFFFFFFFFFFFFFFFFFFFFFFFFFFF AND PUSH20 0xFFFFFFFFFFFFFFFFFFFFFFFFFFFFFFFFFFFFFFFF AND DUP2 MSTORE PUSH1 0x20 ADD SWAP1 DUP2 MSTORE PUSH1 0x20 ADD PUSH0 KECCAK256 PUSH0 DUP3 DUP3 SLOAD PUSH2 0x132 SWAP2 SWAP1 PUSH2 0x480 JUMP JUMPDEST SWAP3 POP POP DUP2 SWAP1 SSTORE POP PUSH32 0x45FDC265DC29885B9A485766B03E70978440D38C7C328EE0A14FA40C76C6AF54 CALLER DUP3 CALLVALUE PUSH1 0x40 MLOAD PUSH2 0x16C SWAP4 SWAP3 SWAP2 SWAP1 PUSH2 0x51D JUMP JUMPDEST PUSH1 0x40 MLOAD DUP1 SWAP2 SUB SWAP1 LOG1 POP JUMP JUMPDEST PUSH0 PUSH1 0x20 MSTORE DUP1 PUSH0 MSTORE PUSH1 0x40 PUSH0 KECCAK256 PUSH0 SWAP2 POP SWAP1 POP SLOAD DUP2 JUMP JUMPDEST PUSH0 DUP1 PUSH0 CALLER PUSH20 0xFFFFFFFFFFFFFFFFFFFFFFFFFFFFFFFFFFFFFFFF AND PUSH20 0xFFFFFFFFFFFFFFFFFFFFFFFFFFFFFFFFFFFFFFFF AND DUP2 MSTORE PUSH1 0x20 ADD SWAP1 DUP2 MSTORE PUSH1 0x20 ADD PUSH0 KECCAK256 SLOAD SWAP1 POP PUSH0 DUP2 GT PUSH2 0x20D JUMPI PUSH1 0x40 MLOAD PUSH32 0x8C379A000000000000000000000000000000000000000000000000000000000 DUP2 MSTORE PUSH1 0x4 ADD PUSH2 0x204 SWAP1 PUSH2 0x59C JUMP JUMPDEST PUSH1 0x40 MLOAD DUP1 SWAP2 SUB SWAP1 REVERT JUMPDEST PUSH0 DUP1 PUSH0 CALLER PUSH20 0xFFFFFFFFFFFFFFFFFFFFFFFFFFFFFFFFFFFFFFFF AND PUSH20 0xFFFFFFFFFFFFFFFFFFFFFFFFFFFFFFFFFFFFFFFF AND DUP2 MSTORE PUSH1 0x20 ADD SWAP1 DUP2 MSTORE PUSH1 0x20 ADD PUSH0 KECCAK256 DUP2 SWAP1 SSTORE POP CALLER PUSH20 0xFFFFFFFFFFFFFFFFFFFFFFFFFFFFFFFFFFFFFFFF AND PUSH2 0x8FC DUP3 SWAP1 DUP2 ISZERO MUL SWAP1 PUSH1 0x40 MLOAD PUSH0 PUSH1 0x40 MLOAD DUP1 DUP4 SUB DUP2 DUP6 DUP9 DUP9 CALL SWAP4 POP POP POP POP ISZERO DUP1 ISZERO PUSH2 0x291 JUMPI RETURNDATASIZE PUSH0 DUP1 RETURNDATACOPY RETURNDATASIZE PUSH0 REVERT JUMPDEST POP POP JUMP JUMPDEST PUSH0 DUP1 REVERT JUMPDEST PUSH0 PUSH20 0xFFFFFFFFFFFFFFFFFFFFFFFFFFFFFFFFFFFFFFFF DUP3 AND SWAP1 POP SWAP2 SWAP1 POP JUMP JUMPDEST PUSH0 PUSH2 0x2C2 DUP3 PUSH2 0x299 JUMP JUMPDEST SWAP1 POP SWAP2 SWAP1 POP JUMP JUMPDEST PUSH2 0x2D2 DUP2 PUSH2 0x2B8 JUMP JUMPDEST DUP2 EQ PUSH2 0x2DC JUMPI PUSH0 DUP1 REVERT JUMPDEST POP JUMP JUMPDEST PUSH0 DUP2 CALLDATALOAD SWAP1 POP PUSH2 0x2ED DUP2 PUSH2 0x2C9 JUMP JUMPDEST SWAP3 SWAP2 POP POP JUMP JUMPDEST PUSH0 PUSH1 0x20 DUP3 DUP5 SUB SLT ISZERO PUSH2 0x308 JUMPI PUSH2 0x307 PUSH2 0x295 JUMP JUMPDEST JUMPDEST PUSH0 PUSH2 0x315 DUP5 DUP3 DUP6 ADD PUSH2 0x2DF JUMP JUMPDEST SWAP2 POP POP SWAP3 SWAP2 POP POP JUMP JUMPDEST PUSH0 PUSH2 0x328 DUP3 PUSH2 0x299 JUMP JUMPDEST SWAP1 POP SWAP2 SWAP1 POP JUMP JUMPDEST PUSH2 0x338 DUP2 PUSH2 0x31E JUMP JUMPDEST DUP2 EQ PUSH2 0x342 JUMPI PUSH0 DUP1 REVERT JUMPDEST POP JUMP JUMPDEST PUSH0 DUP2 CALLDATALOAD SWAP1 POP PUSH2 0x353 DUP2 PUSH2 0x32F JUMP JUMPDEST SWAP3 SWAP2 POP POP JUMP JUMPDEST PUSH0 PUSH1 0x20 DUP3 DUP5 SUB SLT ISZERO PUSH2 0x36E JUMPI PUSH2 0x36D PUSH2 0x295 JUMP JUMPDEST JUMPDEST PUSH0 PUSH2 0x37B DUP5 DUP3 DUP6 ADD PUSH2 0x345 JUMP JUMPDEST SWAP2 POP POP SWAP3 SWAP2 POP POP JUMP JUMPDEST PUSH0 DUP2 SWAP1 POP SWAP2 SWAP1 POP JUMP JUMPDEST PUSH2 0x396 DUP2 PUSH2 0x384 JUMP JUMPDEST DUP3 MSTORE POP POP JUMP JUMPDEST PUSH0 PUSH1 0x20 DUP3 ADD SWAP1 POP PUSH2 0x3AF PUSH0 DUP4 ADD DUP5 PUSH2 0x38D JUMP JUMPDEST SWAP3 SWAP2 POP POP JUMP JUMPDEST PUSH0 DUP3 DUP3 MSTORE PUSH1 0x20 DUP3 ADD SWAP1 POP SWAP3 SWAP2 POP POP JUMP JUMPDEST PUSH32 0x5061796D656E74206D7573742062652067726561746572207468616E207A6572 PUSH0 DUP3 ADD MSTORE PUSH32 0x6F00000000000000000000000000000000000000000000000000000000000000 PUSH1 0x20 DUP3 ADD MSTORE POP JUMP JUMPDEST PUSH0 PUSH2 0x41F PUSH1 0x21 DUP4 PUSH2 0x3B5 JUMP JUMPDEST SWAP2 POP PUSH2 0x42A DUP3 PUSH2 0x3C5 JUMP JUMPDEST PUSH1 0x40 DUP3 ADD SWAP1 POP SWAP2 SWAP1 POP JUMP JUMPDEST PUSH0 PUSH1 0x20 DUP3 ADD SWAP1 POP DUP2 DUP2 SUB PUSH0 DUP4 ADD MSTORE PUSH2 0x44C DUP2 PUSH2 0x413 JUMP JUMPDEST SWAP1 POP SWAP2 SWAP1 POP JUMP JUMPDEST PUSH32 0x4E487B7100000000000000000000000000000000000000000000000000000000 PUSH0 MSTORE PUSH1 0x11 PUSH1 0x4 MSTORE PUSH1 0x24 PUSH0 REVERT JUMPDEST PUSH0 PUSH2 0x48A DUP3 PUSH2 0x384 JUMP JUMPDEST SWAP2 POP PUSH2 0x495 DUP4 PUSH2 0x384 JUMP JUMPDEST SWAP3 POP DUP3 DUP3 ADD SWAP1 POP DUP1 DUP3 GT ISZERO PUSH2 0x4AD JUMPI PUSH2 0x4AC PUSH2 0x453 JUMP JUMPDEST JUMPDEST SWAP3 SWAP2 POP POP JUMP JUMPDEST PUSH2 0x4BC DUP2 PUSH2 0x31E JUMP JUMPDEST DUP3 MSTORE POP POP JUMP JUMPDEST PUSH0 DUP2 SWAP1 POP SWAP2 SWAP1 POP JUMP JUMPDEST PUSH0 PUSH2 0x4E5 PUSH2 0x4E0 PUSH2 0x4DB DUP5 PUSH2 0x299 JUMP JUMPDEST PUSH2 0x4C2 JUMP JUMPDEST PUSH2 0x299 JUMP JUMPDEST SWAP1 POP SWAP2 SWAP1 POP JUMP JUMPDEST PUSH0 PUSH2 0x4F6 DUP3 PUSH2 0x4CB JUMP JUMPDEST SWAP1 POP SWAP2 SWAP1 POP JUMP JUMPDEST PUSH0 PUSH2 0x507 DUP3 PUSH2 0x4EC JUMP JUMPDEST SWAP1 POP SWAP2 SWAP1 POP JUMP JUMPDEST PUSH2 0x517 DUP2 PUSH2 0x4FD JUMP JUMPDEST DUP3 MSTORE POP POP JUMP JUMPDEST PUSH0 PUSH1 0x60 DUP3 ADD SWAP1 POP PUSH2 0x530 PUSH0 DUP4 ADD DUP7 PUSH2 0x4B3 JUMP JUMPDEST PUSH2 0x53D PUSH1 0x20 DUP4 ADD DUP6 PUSH2 0x50E JUMP JUMPDEST PUSH2 0x54A PUSH1 0x40 DUP4 ADD DUP5 PUSH2 0x38D JUMP JUMPDEST SWAP5 SWAP4 POP POP POP POP JUMP JUMPDEST PUSH32 0x4E6F2066756E647320746F207769746864726177000000000000000000000000 PUSH0 DUP3 ADD MSTORE POP JUMP JUMPDEST PUSH0 PUSH2 0x586 PUSH1 0x14 DUP4 PUSH2 0x3B5 JUMP JUMPDEST SWAP2 POP PUSH2 0x591 DUP3 PUSH2 0x552 JUMP JUMPDEST PUSH1 0x20 DUP3 ADD SWAP1 POP SWAP2 SWAP1 POP JUMP JUMPDEST PUSH0 PUSH1 0x20 DUP3 ADD SWAP1 POP DUP2 DUP2 SUB PUSH0 DUP4 ADD MSTORE PUSH2 0x5B3 DUP2 PUSH2 0x57A JUMP JUMPDEST SWAP1 POP SWAP2 SWAP1 POP JUMP INVALID LOG2 PUSH5 0x6970667358 0x22 SLT KECCAK256 0xDB 0xE5 CREATE SWAP2 CODESIZE PUSH29 0x1FE00FC0CE184B8580397DC96E06BF70DEDED08A693DCB582B8664736F PUSH13 0x634300081A0033000000000000 "
				},
				"gasEstimates": {
					"creation": {
						"codeDepositCost": "304000",
						"executionCost": "341",
						"totalCost": "304341"
					},
					"external": {
						"balances(address)": "2801",
						"pay(address)": "infinite",
						"withdraw()": "infinite"
					}
				},
				"methodIdentifiers": {
					"balances(address)": "27e235e3",
					"pay(address)": "0c11dedd",
					"withdraw()": "3ccfd60b"
				}
			},
			"storageLayout": {
				"storage": [
					{
						"astId": 598,
						"contract": "PaymentManager.sol:PaymentManager",
						"label": "balances",
						"offset": 0,
						"slot": "0",
						"type": "t_mapping(t_address,t_uint256)"
					}
				],
				"types": {
					"t_address": {
						"encoding": "inplace",
						"label": "address",
						"numberOfBytes": "20"
					},
					"t_mapping(t_address,t_uint256)": {
						"encoding": "mapping",
						"key": "t_address",
						"label": "mapping(address => uint256)",
						"numberOfBytes": "32",
						"value": "t_uint256"
					},
					"t_uint256": {
						"encoding": "inplace",
						"label": "uint256",
						"numberOfBytes": "32"
					}
				}
			},
			"userdoc": {
				"kind": "user",
				"methods": {},
				"version": 1
			}
		}
	}
}